{
  "_format": "hh-sol-artifact-1",
  "contractName": "BathHouse",
  "sourceName": "contracts/rubiconPools/BathHouse.sol",
  "abi": [
    {
      "inputs": [],
      "name": "RubiconMarketAddress",
      "outputs": [
        {
          "internalType": "address",
          "name": "",
          "type": "address"
        }
      ],
      "stateMutability": "view",
      "type": "function"
    },
    {
      "inputs": [],
      "name": "admin",
      "outputs": [
        {
          "internalType": "address",
          "name": "",
          "type": "address"
        }
      ],
      "stateMutability": "view",
      "type": "function"
    },
    {
      "inputs": [
        {
          "internalType": "address",
          "name": "strategist",
          "type": "address"
        }
      ],
      "name": "approveStrategist",
      "outputs": [],
      "stateMutability": "nonpayable",
      "type": "function"
    },
    {
      "inputs": [
        {
          "internalType": "address",
          "name": "",
          "type": "address"
        }
      ],
      "name": "approvedBathTokens",
      "outputs": [
        {
          "internalType": "bool",
          "name": "",
          "type": "bool"
        }
      ],
      "stateMutability": "view",
      "type": "function"
    },
    {
      "inputs": [
        {
          "internalType": "address",
          "name": "",
          "type": "address"
        }
      ],
      "name": "approvedPairs",
      "outputs": [
        {
          "internalType": "bool",
          "name": "",
          "type": "bool"
        }
      ],
      "stateMutability": "view",
      "type": "function"
    },
    {
      "inputs": [
        {
          "internalType": "address",
          "name": "",
          "type": "address"
        }
      ],
      "name": "approvedStrategists",
      "outputs": [
        {
          "internalType": "bool",
          "name": "",
          "type": "bool"
        }
      ],
      "stateMutability": "view",
      "type": "function"
    },
    {
      "inputs": [
        {
          "internalType": "address",
          "name": "asset",
          "type": "address"
        }
      ],
      "name": "doesAssetExist",
      "outputs": [
        {
          "internalType": "bool",
          "name": "",
          "type": "bool"
        }
      ],
      "stateMutability": "view",
      "type": "function"
    },
    {
      "inputs": [
        {
          "internalType": "address",
          "name": "quote",
          "type": "address"
        }
      ],
      "name": "doesQuoteExist",
      "outputs": [
        {
          "internalType": "bool",
          "name": "",
          "type": "bool"
        }
      ],
      "stateMutability": "view",
      "type": "function"
    },
    {
      "inputs": [
        {
          "internalType": "address",
          "name": "pair",
          "type": "address"
        }
      ],
      "name": "getBPSToStrats",
      "outputs": [
        {
          "internalType": "uint8",
          "name": "",
          "type": "uint8"
        }
      ],
      "stateMutability": "view",
      "type": "function"
    },
    {
      "inputs": [
        {
          "internalType": "address",
          "name": "asset",
          "type": "address"
        },
        {
          "internalType": "address",
          "name": "quote",
          "type": "address"
        }
      ],
      "name": "getBathPair",
      "outputs": [
        {
          "internalType": "address",
          "name": "pair",
          "type": "address"
        }
      ],
      "stateMutability": "view",
      "type": "function"
    },
    {
      "inputs": [
        {
          "internalType": "address",
          "name": "asset",
          "type": "address"
        }
      ],
      "name": "getBathTokenfromAsset",
      "outputs": [
        {
          "internalType": "address",
          "name": "",
          "type": "address"
        }
      ],
      "stateMutability": "view",
      "type": "function"
    },
    {
      "inputs": [
        {
          "internalType": "address",
          "name": "quote",
          "type": "address"
        }
      ],
      "name": "getBathTokenfromQuote",
      "outputs": [
        {
          "internalType": "address",
          "name": "",
          "type": "address"
        }
      ],
      "stateMutability": "view",
      "type": "function"
    },
    {
      "inputs": [],
      "name": "getCancelTimeDelay",
      "outputs": [
        {
          "internalType": "uint256",
          "name": "",
          "type": "uint256"
        }
      ],
      "stateMutability": "view",
      "type": "function"
    },
    {
      "inputs": [],
      "name": "getMarket",
      "outputs": [
        {
          "internalType": "address",
          "name": "",
          "type": "address"
        }
      ],
      "stateMutability": "view",
      "type": "function"
    },
    {
      "inputs": [
        {
          "internalType": "address",
          "name": "",
          "type": "address"
        },
        {
          "internalType": "address",
          "name": "",
          "type": "address"
        }
      ],
      "name": "getPair",
      "outputs": [
        {
          "internalType": "address",
          "name": "",
          "type": "address"
        }
      ],
      "stateMutability": "view",
      "type": "function"
    },
    {
      "inputs": [],
      "name": "getReserveRatio",
      "outputs": [
        {
          "internalType": "uint256",
          "name": "",
          "type": "uint256"
        }
      ],
      "stateMutability": "view",
      "type": "function"
    },
    {
      "inputs": [
        {
          "internalType": "address",
          "name": "asset",
          "type": "address"
        },
        {
          "internalType": "address",
          "name": "quote",
          "type": "address"
        },
        {
          "internalType": "address",
          "name": "pair",
          "type": "address"
        },
        {
          "internalType": "uint8",
          "name": "_propToStrategists",
          "type": "uint8"
        }
      ],
      "name": "initBathPair",
      "outputs": [
        {
          "internalType": "address",
          "name": "newPair",
          "type": "address"
        }
      ],
      "stateMutability": "nonpayable",
      "type": "function"
    },
    {
      "inputs": [
        {
          "internalType": "address",
          "name": "market",
          "type": "address"
        },
        {
          "internalType": "uint256",
          "name": "_reserveRatio",
          "type": "uint256"
        },
        {
          "internalType": "uint256",
          "name": "_timeDelay",
          "type": "uint256"
        },
        {
          "internalType": "uint256",
          "name": "mopc",
          "type": "uint256"
        }
      ],
      "name": "initialize",
      "outputs": [],
      "stateMutability": "nonpayable",
      "type": "function"
    },
    {
      "inputs": [],
      "name": "initialized",
      "outputs": [
        {
          "internalType": "bool",
          "name": "",
          "type": "bool"
        }
      ],
      "stateMutability": "view",
      "type": "function"
    },
    {
      "inputs": [
        {
          "internalType": "address",
          "name": "pair",
          "type": "address"
        }
      ],
      "name": "isApprovedPair",
      "outputs": [
        {
          "internalType": "bool",
          "name": "",
          "type": "bool"
        }
      ],
      "stateMutability": "view",
      "type": "function"
    },
    {
      "inputs": [
        {
          "internalType": "address",
          "name": "wouldBeStrategist",
          "type": "address"
        }
      ],
      "name": "isApprovedStrategist",
      "outputs": [
        {
          "internalType": "bool",
          "name": "",
          "type": "bool"
        }
      ],
      "stateMutability": "view",
      "type": "function"
    },
    {
      "inputs": [],
      "name": "maxOutstandingPairCount",
      "outputs": [
        {
          "internalType": "uint256",
          "name": "",
          "type": "uint256"
        }
      ],
      "stateMutability": "view",
      "type": "function"
    },
    {
      "inputs": [],
      "name": "name",
      "outputs": [
        {
          "internalType": "string",
          "name": "",
          "type": "string"
        }
      ],
      "stateMutability": "view",
      "type": "function"
    },
    {
      "inputs": [],
      "name": "permissionedStrategists",
      "outputs": [
        {
          "internalType": "bool",
          "name": "",
          "type": "bool"
        }
      ],
      "stateMutability": "view",
      "type": "function"
    },
    {
      "inputs": [
        {
          "internalType": "address",
          "name": "",
          "type": "address"
        }
      ],
      "name": "propToStrategists",
      "outputs": [
        {
          "internalType": "uint8",
          "name": "",
          "type": "uint8"
        }
      ],
      "stateMutability": "view",
      "type": "function"
    },
    {
      "inputs": [
        {
          "internalType": "address",
          "name": "pair",
          "type": "address"
        }
      ],
      "name": "removePair",
      "outputs": [],
      "stateMutability": "nonpayable",
      "type": "function"
    },
    {
      "inputs": [],
      "name": "reserveRatio",
      "outputs": [
        {
          "internalType": "uint256",
          "name": "",
          "type": "uint256"
        }
      ],
      "stateMutability": "view",
      "type": "function"
    },
    {
      "inputs": [
        {
          "internalType": "address",
          "name": "newAdmin",
          "type": "address"
        }
      ],
      "name": "setBathHouseAdmin",
      "outputs": [],
      "stateMutability": "nonpayable",
      "type": "function"
    },
    {
      "inputs": [
        {
          "internalType": "address",
          "name": "bathPair",
          "type": "address"
        },
        {
          "internalType": "uint16",
          "name": "mosbps",
          "type": "uint16"
        }
      ],
      "name": "setBathPairMOSBPS",
      "outputs": [],
      "stateMutability": "nonpayable",
      "type": "function"
    },
    {
      "inputs": [
        {
          "internalType": "address",
          "name": "bathPair",
          "type": "address"
        },
        {
          "internalType": "int128",
          "name": "val",
          "type": "int128"
        }
      ],
      "name": "setBathPairSCN",
      "outputs": [],
      "stateMutability": "nonpayable",
      "type": "function"
    },
    {
      "inputs": [
        {
          "internalType": "address",
          "name": "bathPair",
          "type": "address"
        },
        {
          "internalType": "uint256",
          "name": "sr",
          "type": "uint256"
        }
      ],
      "name": "setBathPairSearchRadius",
      "outputs": [],
      "stateMutability": "nonpayable",
      "type": "function"
    },
    {
      "inputs": [
        {
          "internalType": "address",
          "name": "bathToken",
          "type": "address"
        },
        {
          "internalType": "address",
          "name": "newAdmin",
          "type": "address"
        }
      ],
      "name": "setBathTokenBathHouse",
      "outputs": [],
      "stateMutability": "nonpayable",
      "type": "function"
    },
    {
      "inputs": [
        {
          "internalType": "address",
          "name": "bathToken",
          "type": "address"
        },
        {
          "internalType": "uint256",
          "name": "newBPS",
          "type": "uint256"
        }
      ],
      "name": "setBathTokenFeeBPS",
      "outputs": [],
      "stateMutability": "nonpayable",
      "type": "function"
    },
    {
      "inputs": [
        {
          "internalType": "address",
          "name": "bathToken",
          "type": "address"
        },
        {
          "internalType": "address",
          "name": "newMarket",
          "type": "address"
        }
      ],
      "name": "setBathTokenMarket",
      "outputs": [],
      "stateMutability": "nonpayable",
      "type": "function"
    },
    {
      "inputs": [
        {
          "internalType": "uint256",
          "name": "value",
          "type": "uint256"
        }
      ],
      "name": "setCancelTimeDelay",
      "outputs": [],
      "stateMutability": "nonpayable",
      "type": "function"
    },
    {
      "inputs": [
        {
          "internalType": "address",
          "name": "bathToken",
          "type": "address"
        },
        {
          "internalType": "address",
          "name": "feeTo",
          "type": "address"
        }
      ],
      "name": "setFeeTo",
      "outputs": [],
      "stateMutability": "nonpayable",
      "type": "function"
    },
    {
      "inputs": [
        {
          "internalType": "address",
          "name": "newMarket",
          "type": "address"
        }
      ],
      "name": "setMarket",
      "outputs": [],
      "stateMutability": "nonpayable",
      "type": "function"
    },
    {
      "inputs": [
        {
          "internalType": "uint256",
          "name": "value",
          "type": "uint256"
        }
      ],
      "name": "setMaxOutstandingPairCount",
      "outputs": [],
      "stateMutability": "nonpayable",
      "type": "function"
    },
    {
      "inputs": [
        {
          "internalType": "bool",
          "name": "_new",
          "type": "bool"
        }
      ],
      "name": "setPermissionedStrategists",
      "outputs": [],
      "stateMutability": "nonpayable",
      "type": "function"
    },
    {
      "inputs": [
        {
          "internalType": "uint8",
          "name": "value",
          "type": "uint8"
        },
        {
          "internalType": "address",
          "name": "pair",
          "type": "address"
        }
      ],
      "name": "setPropToStrats",
      "outputs": [],
      "stateMutability": "nonpayable",
      "type": "function"
    },
    {
      "inputs": [
        {
          "internalType": "uint256",
          "name": "rr",
          "type": "uint256"
        }
      ],
      "name": "setReserveRatio",
      "outputs": [],
      "stateMutability": "nonpayable",
      "type": "function"
    },
    {
      "inputs": [],
      "name": "timeDelay",
      "outputs": [
        {
          "internalType": "uint256",
          "name": "",
          "type": "uint256"
        }
      ],
      "stateMutability": "view",
      "type": "function"
    }
  ],
  "bytecode": "0x60806040523480156100195760008061001661001f565b50505b5061008a565b632a2a7adb598160e01b8152600481016020815285602082015260005b8681101561005757808601518282016040015260200161003c565b506020828760640184336000905af158600e01573d6000803e3d6000fd5b3d6001141558600a015760016000f35b505050565b611ee4806100996000396000f3fe608060405234801561001957600080610016611ab9565b50505b50600436106101f75760003560e01c806301df192514610205578063023fa1d01461024857806306fdde03146102705780630c7d5cd8146102ef5780630f64afd014610309578063158ef93e1461033e578063191a4378146103465780631f3cdd8a1461037d57806320b46ff7146103c25780632f6bed9e146103f9578063319ddafb14610421578063382691df146104505780633de734841461047f5780634ec81af1146104875780635674def6146104c857806356b6d0d5146104f7578063599ff372146104ff5780635a7a5cbc146105645780636071015d1461058a57806360f71b24146105b9578063680cb3f8146105c157806368763e51146105f957806369b8dc9e146106285780636dcea85f1461065757806378851f7c146106865780637c047720146106b55780638adf5024146106e45780638b4f3b2c1461071c5780638f259e451461074257806393e2aea41461074a578063a8f096a414610346578063aa4eb2d21461077f578063ab511b9d146107ae578063af6c9c1d146107e7578063b3d7480e14610816578063c9dec3611461084d578063ca3a86cd14610855578063e43e270414610884578063e6a43905146108b3578063f1be1679146108ea578063f851a440146108f2578063fd58498e146108fa575b600080610202611ab9565b50505b6102346004803603602081101561022457600080610221611ab9565b50505b50356001600160a01b0316610902565b604051901515815260200160405180910390f35b61026e6004803603602081101561026757600080610264611ab9565b50505b5035610937565b005b610278610993565b60405160208082528190810183818151815260200191508051906020019080838360005b838110156102b457808201518382015260200161029c565b50505050905090810190601f1680156102e15780820380516001836020036101000a031916815260200191505b509250505060405180910390f35b6102f7610a4c565b60405190815260200160405180910390f35b61026e6004803603604081101561032857600080610325611ab9565b50505b506001600160a01b038135169060200135610a59565b610234610b2e565b61026e6004803603604081101561036557600080610362611ab9565b50505b506001600160a01b0381358116916020013516610b47565b6103ac6004803603602081101561039c57600080610399611ab9565b50505b50356001600160a01b0316610bdd565b60405160ff909116815260200160405180910390f35b61026e600480360360408110156103e1576000806103de611ab9565b50505b506001600160a01b0381358116916020013516610c00565b61026e6004803603602081101561041857600080610415611ab9565b50505b50351515610c96565b610234600480360360208110156104405760008061043d611ab9565b50505b50356001600160a01b0316610d04565b6103ac6004803603602081101561046f5760008061046c611ab9565b50505b50356001600160a01b0316610d27565b610234610d41565b61026e600480360360808110156104a6576000806104a3611ab9565b50505b506001600160a01b038135169060208101359060408101359060600135610d4d565b61026e600480360360208110156104e7576000806104e4611ab9565b50505b50356001600160a01b0316610eff565b6102f7610f79565b6105486004803603608081101561051e5760008061051b611ab9565b50505b5080356001600160a01b03908116916020810135821691604082013516906060013560ff16610f8a565b6040516001600160a01b03909116815260200160405180910390f35b61026e6004803603602081101561058357600080610580611ab9565b50505b5035611299565b610234600480360360208110156105a9576000806105a6611ab9565b50505b50356001600160a01b03166112ef565b610548611356565b61026e600480360360408110156105e0576000806105dd611ab9565b50505b506001600160a01b038135169060200135600f0b611375565b61026e6004803603602081101561061857600080610615611ab9565b50505b50356001600160a01b0316611406565b6105486004803603602081101561064757600080610644611ab9565b50505b50356001600160a01b0316611476565b61026e6004803603602081101561067657600080610673611ab9565b50505b50356001600160a01b03166114b0565b610234600480360360208110156106a5576000806106a2611ab9565b50505b50356001600160a01b0316611508565b610548600480360360208110156106d4576000806106d1611ab9565b50505b50356001600160a01b0316611522565b61026e6004803603604081101561070357600080610700611ab9565b50505b50803560ff1690602001356001600160a01b0316611545565b61026e6004803603602081101561073b57600080610738611ab9565b50505b50356115ea565b6102f761166d565b61026e6004803603604081101561076957600080610766611ab9565b50505b506001600160a01b038135169060200135611677565b6102346004803603602081101561079e5760008061079b611ab9565b50505b50356001600160a01b0316611705565b61026e600480360360408110156107cd576000806107ca611ab9565b50505b5080356001600160a01b0316906020013561ffff1661171f565b61026e6004803603602081101561080657600080610803611ab9565b50505b50356001600160a01b03166117b0565b6105486004803603604081101561083557600080610832611ab9565b50505b506001600160a01b038135811691602001351661181d565b6102f7611872565b6102346004803603602081101561087457600080610871611ab9565b50505b50356001600160a01b031661187c565b610234600480360360208110156108a3576000806108a0611ab9565b50505b50356001600160a01b03166118bd565b610548600480360360408110156108d2576000806108cf611ab9565b50505b506001600160a01b03813581169160200135166118d7565b6105486118ff565b610548611921565b6102f761192d565b6001600160a01b0381166000908152600760205260408120600090610925611b24565b906101000a900460ff1690505b919050565b60006002610943611b24565b906101000a90046001600160a01b03166001600160a01b03165a610965611b84565b6001600160a01b0316146109815760008061097e611ab9565b50505b8080600e61098d611bca565b50505050565b60008061099e611b24565b600181600116156101000203166002900480601f0160208091040260200160405190810160405281815291906020830182806109d8611b24565b60018160011615610100020316600290048015610a445780601f10610a12576101008083610a04611b24565b040283529160200191610a44565b820191906000526020600020905b81610a29611b24565b81529060010190602001808311610a2057829003601f168201915b505050505081565b600d610a56611b24565b81565b60006002610a65611b24565b906101000a90046001600160a01b03166001600160a01b03165a610a87611b84565b6001600160a01b031614610aa357600080610aa0611ab9565b50505b816001600160a01b031663604b6a9c826040516001600160e01b031960e084901b168152600481019190915260240160006040518083038160008780610ae7611c18565b158015610afc57600080610af9611ab9565b50505b505a610b06611c64565b505050505050158015610b26573d6000803e3d6000610b23611ab9565b50505b505050505050565b6000600c610b3a611b24565b906101000a900460ff1681565b60006002610b53611b24565b906101000a90046001600160a01b03166001600160a01b03165a610b75611b84565b6001600160a01b031614610b9157600080610b8e611ab9565b50505b816001600160a01b0316636dcea85f826040516001600160e01b031960e084901b1681526001600160a01b03909116600482015260240160006040518083038160008780610ae7611c18565b6001600160a01b0381166000908152600960205260408120600090610925611b24565b60006002610c0c611b24565b906101000a90046001600160a01b03166001600160a01b03165a610c2e611b84565b6001600160a01b031614610c4a57600080610c47611ab9565b50505b816001600160a01b031663f46901ed826040516001600160e01b031960e084901b1681526001600160a01b03909116600482015260240160006040518083038160008780610ae7611c18565b60006002610ca2611b24565b906101000a90046001600160a01b03166001600160a01b03165a610cc4611b84565b6001600160a01b031614610ce057600080610cdd611ab9565b50505b80600c61010081610cef611b24565b8160ff0219169083151502179061098d611bca565b6001600160a01b0381166000908152600860205260408120600090610925611b24565b600960205280600052604060002060009150610b3a611b24565b6001600c610b3a611b24565b6000600c610d59611b24565b906101000a900460ff1615610d7657600080610d73611ab9565b50505b60405160408082019052601281527152756269636f6e204261746820486f75736560701b60208201526000908051610db2929160200190611d4f565b505a610dbc611b84565b6002600181610dc9611b24565b816001600160a01b0302191690836001600160a01b0316021790610deb611bca565b50505081600e8190610dfb611bca565b5050506064831115610e1557600080610e12611ab9565b50505b60008311610e2b57600080610e28611ab9565b50505b8280600d610e37611bca565b50505080600f8190610e47611bca565b50505083600360006101000a81610e5c611b24565b816001600160a01b0302191690836001600160a01b0316021790610e7e611bca565b505050610ea66002600090610e91611b24565b906101000a90046001600160a01b0316611406565b6001600c61010081610eb6611b24565b8160ff02191690831515021790610ecb611bca565b5050506001600c60006101000a81610ee1611b24565b8160ff02191690831515021790610ef6611bca565b50505050505050565b60006002610f0b611b24565b906101000a90046001600160a01b03166001600160a01b03165a610f2d611b84565b6001600160a01b031614610f4957600080610f46611ab9565b50505b806002600181610f57611b24565b816001600160a01b0302191690836001600160a01b031602179061098d611bca565b6000600d610f85611b24565b905090565b6000806002610f97611b24565b906101000a90046001600160a01b03166001600160a01b03165a610fb9611b84565b6001600160a01b031614610fd557600080610fd2611ab9565b50505b836001600160a01b0316856001600160a01b03161415610ffd57600080610ffa611ab9565b50505b6001600160a01b03851661101957600080611016611ab9565b50505b6001600160a01b03841661103557600080611032611ab9565b50505b6001600160a01b0385166000908152600160205261108a90604090206001600160a01b038616600090815260209190915260409020600090611075611b24565b906101000a90046001600160a01b031661187c565b1561109d5760008061109a611ab9565b50505b6001600160a01b038316600090815260096020528290604090206001816110c2611b24565b8160ff021916908360ff160217906110d8611bca565b5050506001600160a01b038516600090815260016020528390604090206001600160a01b038616600090815260209190915260409020600181611119611b24565b816001600160a01b0302191690836001600160a01b031602179061113b611bca565b50505061114783611939565b6111ec84846001600160a01b031663e22a78076040518163ffffffff1660e01b8152600401602060405180830381868061117f611c18565b15801561119457600080611191611ab9565b50505b505a61119e611dff565b50505050501580156111bd573d6000803e3d60006111ba611ab9565b50505b505050506040513d60208110156111dc576000806111d9611ab9565b50505b810190808051925061195f915050565b61129085846001600160a01b0316623acabc6040518163ffffffff1660e01b81526004016020604051808303818680611223611c18565b15801561123857600080611235611ab9565b50505b505a611242611dff565b5050505050158015611261573d6000803e3d600061125e611ab9565b50505b505050506040513d60208110156112805760008061127d611ab9565b50505b8101908080519250611a1f915050565b50909392505050565b600060026112a5611b24565b906101000a90046001600160a01b03166001600160a01b03165a6112c7611b84565b6001600160a01b0316146112e3576000806112e0611ab9565b50505b8080600f61098d611bca565b6001600160a01b0381166000908152600660205260408120600090611312611b24565b906101000a900460ff16151560011515148061134157506001600c611335611b24565b906101000a900460ff16155b1561134e57506001610932565b506000610932565b60006003611362611b24565b906101000a90046001600160a01b031681565b60006002611381611b24565b906101000a90046001600160a01b03166001600160a01b03165a6113a3611b84565b6001600160a01b0316146113bf576000806113bc611ab9565b50505b816001600160a01b03166318447307826040516001600160e01b031960e084901b168152600f9190910b600482015260240160006040518083038160008780610ae7611c18565b60006002611412611b24565b906101000a90046001600160a01b03166001600160a01b03165a611434611b84565b6001600160a01b0316146114505760008061144d611ab9565b50505b6001600160a01b0381166000908152600660205260019060409020600181610cef611b24565b6001600160a01b0381166000908152600a60205260408120600090611499611b24565b906101000a90046001600160a01b03169050919050565b600060026114bc611b24565b906101000a90046001600160a01b03166001600160a01b03165a6114de611b84565b6001600160a01b0316146114fa576000806114f7611ab9565b50505b806003600181610f57611b24565b600660205280600052604060002060009150610b3a611b24565b6001600160a01b0381166000908152600b60205260408120600090611499611b24565b60006002611551611b24565b906101000a90046001600160a01b03166001600160a01b03165a611573611b84565b6001600160a01b03161461158f5760008061158c611ab9565b50505b60328260ff16106115a8576000806115a5611ab9565b50505b6001600160a01b038116600090815260096020528290604090206001816115cd611b24565b8160ff021916908360ff160217906115e3611bca565b5050505050565b600060026115f6611b24565b906101000a90046001600160a01b03166001600160a01b03165a611618611b84565b6001600160a01b03161461163457600080611631611ab9565b50505b606481111561164b57600080611648611ab9565b50505b600081116116615760008061165e611ab9565b50505b8080600d61098d611bca565b600f610a56611b24565b60006002611683611b24565b906101000a90046001600160a01b03166001600160a01b03165a6116a5611b84565b6001600160a01b0316146116c1576000806116be611ab9565b50505b816001600160a01b03166314a933b2826040516001600160e01b031960e084901b168152600481019190915260240160006040518083038160008780610ae7611c18565b600560205280600052604060002060009150610b3a611b24565b6000600261172b611b24565b906101000a90046001600160a01b03166001600160a01b03165a61174d611b84565b6001600160a01b03161461176957600080611766611ab9565b50505b816001600160a01b031663028d01fe826040516001600160e01b031960e084901b16815261ffff909116600482015260240160006040518083038160008780610ae7611c18565b600060026117bc611b24565b906101000a90046001600160a01b03166001600160a01b03165a6117de611b84565b6001600160a01b0316146117fa576000806117f7611ab9565b50505b6001600160a01b0381166000908152600560205260408120600181610cef611b24565b6001600160a01b03821660009081526001602052604081206001600160a01b038316600090815260209190915260409020600090611859611b24565b906101000a90046001600160a01b031690505b92915050565b600e610a56611b24565b6001600160a01b038116600090815260056020526040812060009061189f611b24565b906101000a900460ff16151560011515141561134e57506001610932565b600460205280600052604060002060009150610b3a611b24565b6001602052816000526040600020602052806000526040600020600092509050611362611b24565b600080600361190c611b24565b906101000a90046001600160a01b0316905090565b60006002611362611b24565b6000600e610f85611b24565b6001600160a01b0381166000908152600560205260019060409020600181610cef611b24565b6001600160a01b0382166000908152600760205260409020600090611982611b24565b906101000a900460ff161561199657611a1b565b6001600160a01b03821660009081526007602052600190604090206001816119bc611b24565b8160ff021916908315150217906119d1611bca565b5050506001600160a01b0382166000908152600a6020528190604090206001816119f9611b24565b816001600160a01b0302191690836001600160a01b03160217906115e3611bca565b5050565b6001600160a01b0382166000908152600860205260409020600090611a42611b24565b906101000a900460ff1615611a5657611a1b565b6001600160a01b0382166000908152600860205260019060409020600181611a7c611b24565b8160ff02191690831515021790611a91611bca565b5050506001600160a01b0382166000908152600b6020528190604090206001816119f9611b24565b632a2a7adb598160e01b8152600481016020815285602082015260005b86811015611af1578086015182820160400152602001611ad6565b506020828760640184336000905af158600e01573d6000803e3d6000fd5b3d6001141558600a015760016000f35b505050565b6303daa959598160e01b8152836004820152602081602483336000905af158600e01573d6000803e3d6000fd5b3d6001141558600a015760016000f35b8051935060005b6040811015611b7f57600082820152602001611b68565b505050565b6373509064598160e01b8152602081600483336000905af158600e01573d6000803e3d6000fd5b3d6001141558600a015760016000f35b80516000825293506020611b68565b6322bd64c0598160e01b8152836004820152846024820152600081604483336000905af158600e01573d6000803e3d6000fd5b3d6001141558600a015760016000f35b600081526020611b68565b638435035b598160e01b8152836004820152602081602483336000905af158600e01573d6000803e3d6000fd5b3d6001141558600a015760016000f35b80516000825293506020611b68565b6385979f76598160e01b8152611c95565b808083111561186c575090919050565b808083101561186c575090919050565b836004820152846024820152606060448201528760648201526084810160005b89811015611ccd578089015182820152602001611cb5565b506060828a60a40184336000905af158600e01573d6000803e3d6000fd5b3d6001141558600a015760016000f35b815160408301513d6000853e8c8c82606087013350600060045af15059611d228e3d611c85565b8d01611d2e8187611c75565b5b82811015611d435760008152602001611d2f565b50929d50505050505050565b8280611d59611b24565b600181600116156101000203166002900490600052602060002090601f016020900481019282611d9557600085611d8e611bca565b5050611def565b82601f10611db057805160ff19168380011785611d8e611bca565b82800160010185611dbf611bca565b50508215611def579182015b82811115611def57825182611dde611bca565b505091602001919060010190611dcb565b50611dfb929150611ec5565b5090565b638540661f598160e01b8152836004820152846024820152606060448201528660648201526084810160005b88811015611e43578088015182820152602001611e2b565b506060828960a40184336000905af158600e01573d6000803e3d6000fd5b3d6001141558600a015760016000f35b815160408301513d6000853e8b8b82606087013350600060045af15059611e988d3d611c85565b8c01611ea48187611c75565b5b82811015611eb95760008152602001611ea5565b50929c50505050505050565b80821115611dfb5760008082611ed9611bca565b505050600101611ec556",
  "linkReferences": {},
  "deployedLinkReferences": {}
}