{
  "_format": "hh-sol-artifact-1",
  "contractName": "BathToken",
  "sourceName": "contracts/rubiconPools/BathToken.sol",
  "abi": [
    {
      "anonymous": false,
      "inputs": [
        {
          "indexed": true,
          "internalType": "address",
          "name": "owner",
          "type": "address"
        },
        {
          "indexed": true,
          "internalType": "address",
          "name": "spender",
          "type": "address"
        },
        {
          "indexed": false,
          "internalType": "uint256",
          "name": "value",
          "type": "uint256"
        }
      ],
      "name": "Approval",
      "type": "event"
    },
    {
      "anonymous": false,
      "inputs": [
        {
          "indexed": false,
          "internalType": "uint256",
          "name": "depositedAmt",
          "type": "uint256"
        },
        {
          "indexed": false,
          "internalType": "contract IERC20",
          "name": "asset",
          "type": "address"
        },
        {
          "indexed": false,
          "internalType": "uint256",
          "name": "sharesReceived",
          "type": "uint256"
        },
        {
          "indexed": false,
          "internalType": "address",
          "name": "depositor",
          "type": "address"
        }
      ],
      "name": "Deposit",
      "type": "event"
    },
    {
      "anonymous": false,
      "inputs": [
        {
          "indexed": false,
          "internalType": "uint256",
          "name": "timeOfInit",
          "type": "uint256"
        }
      ],
      "name": "LogInit",
      "type": "event"
    },
    {
      "anonymous": false,
      "inputs": [
        {
          "indexed": true,
          "internalType": "address",
          "name": "from",
          "type": "address"
        },
        {
          "indexed": true,
          "internalType": "address",
          "name": "to",
          "type": "address"
        },
        {
          "indexed": false,
          "internalType": "uint256",
          "name": "value",
          "type": "uint256"
        }
      ],
      "name": "Transfer",
      "type": "event"
    },
    {
      "inputs": [],
      "name": "DOMAIN_SEPARATOR",
      "outputs": [
        {
          "internalType": "bytes32",
          "name": "",
          "type": "bytes32"
        }
      ],
      "stateMutability": "view",
      "type": "function"
    },
    {
      "inputs": [],
      "name": "PERMIT_TYPEHASH",
      "outputs": [
        {
          "internalType": "bytes32",
          "name": "",
          "type": "bytes32"
        }
      ],
      "stateMutability": "view",
      "type": "function"
    },
    {
      "inputs": [],
      "name": "RubiconMarketAddress",
      "outputs": [
        {
          "internalType": "address",
          "name": "",
          "type": "address"
        }
      ],
      "stateMutability": "view",
      "type": "function"
    },
    {
      "inputs": [
        {
          "internalType": "address",
          "name": "",
          "type": "address"
        },
        {
          "internalType": "address",
          "name": "",
          "type": "address"
        }
      ],
      "name": "allowance",
      "outputs": [
        {
          "internalType": "uint256",
          "name": "",
          "type": "uint256"
        }
      ],
      "stateMutability": "view",
      "type": "function"
    },
    {
      "inputs": [
        {
          "internalType": "address",
          "name": "spender",
          "type": "address"
        },
        {
          "internalType": "uint256",
          "name": "value",
          "type": "uint256"
        }
      ],
      "name": "approve",
      "outputs": [
        {
          "internalType": "bool",
          "name": "",
          "type": "bool"
        }
      ],
      "stateMutability": "nonpayable",
      "type": "function"
    },
    {
      "inputs": [
        {
          "internalType": "address",
          "name": "",
          "type": "address"
        }
      ],
      "name": "balanceOf",
      "outputs": [
        {
          "internalType": "uint256",
          "name": "",
          "type": "uint256"
        }
      ],
      "stateMutability": "view",
      "type": "function"
    },
    {
      "inputs": [],
      "name": "bathHouse",
      "outputs": [
        {
          "internalType": "address",
          "name": "",
          "type": "address"
        }
      ],
      "stateMutability": "view",
      "type": "function"
    },
    {
      "inputs": [
        {
          "internalType": "uint256",
          "name": "id",
          "type": "uint256"
        },
        {
          "internalType": "uint256",
          "name": "amt",
          "type": "uint256"
        }
      ],
      "name": "cancel",
      "outputs": [],
      "stateMutability": "nonpayable",
      "type": "function"
    },
    {
      "inputs": [],
      "name": "decimals",
      "outputs": [
        {
          "internalType": "uint8",
          "name": "",
          "type": "uint8"
        }
      ],
      "stateMutability": "view",
      "type": "function"
    },
    {
      "inputs": [
        {
          "internalType": "uint256",
          "name": "_amount",
          "type": "uint256"
        }
      ],
      "name": "deposit",
      "outputs": [],
      "stateMutability": "nonpayable",
      "type": "function"
    },
    {
      "inputs": [],
      "name": "feeBPS",
      "outputs": [
        {
          "internalType": "uint256",
          "name": "",
          "type": "uint256"
        }
      ],
      "stateMutability": "view",
      "type": "function"
    },
    {
      "inputs": [],
      "name": "feeTo",
      "outputs": [
        {
          "internalType": "address",
          "name": "",
          "type": "address"
        }
      ],
      "stateMutability": "view",
      "type": "function"
    },
    {
      "inputs": [
        {
          "internalType": "string",
          "name": "bathName",
          "type": "string"
        },
        {
          "internalType": "contract IERC20",
          "name": "token",
          "type": "address"
        },
        {
          "internalType": "address",
          "name": "market",
          "type": "address"
        },
        {
          "internalType": "address",
          "name": "_bathHouse",
          "type": "address"
        },
        {
          "internalType": "address",
          "name": "_feeTo",
          "type": "address"
        }
      ],
      "name": "initialize",
      "outputs": [],
      "stateMutability": "nonpayable",
      "type": "function"
    },
    {
      "inputs": [],
      "name": "initialized",
      "outputs": [
        {
          "internalType": "bool",
          "name": "",
          "type": "bool"
        }
      ],
      "stateMutability": "view",
      "type": "function"
    },
    {
      "inputs": [],
      "name": "name",
      "outputs": [
        {
          "internalType": "string",
          "name": "",
          "type": "string"
        }
      ],
      "stateMutability": "view",
      "type": "function"
    },
    {
      "inputs": [
        {
          "internalType": "address",
          "name": "",
          "type": "address"
        }
      ],
      "name": "nonces",
      "outputs": [
        {
          "internalType": "uint256",
          "name": "",
          "type": "uint256"
        }
      ],
      "stateMutability": "view",
      "type": "function"
    },
    {
      "inputs": [],
      "name": "outstandingAmount",
      "outputs": [
        {
          "internalType": "uint256",
          "name": "",
          "type": "uint256"
        }
      ],
      "stateMutability": "view",
      "type": "function"
    },
    {
      "inputs": [
        {
          "internalType": "address",
          "name": "owner",
          "type": "address"
        },
        {
          "internalType": "address",
          "name": "spender",
          "type": "address"
        },
        {
          "internalType": "uint256",
          "name": "value",
          "type": "uint256"
        },
        {
          "internalType": "uint256",
          "name": "deadline",
          "type": "uint256"
        },
        {
          "internalType": "uint8",
          "name": "v",
          "type": "uint8"
        },
        {
          "internalType": "bytes32",
          "name": "r",
          "type": "bytes32"
        },
        {
          "internalType": "bytes32",
          "name": "s",
          "type": "bytes32"
        }
      ],
      "name": "permit",
      "outputs": [],
      "stateMutability": "nonpayable",
      "type": "function"
    },
    {
      "inputs": [
        {
          "internalType": "uint256",
          "name": "pay_amt",
          "type": "uint256"
        },
        {
          "internalType": "contract ERC20",
          "name": "pay_gem",
          "type": "address"
        },
        {
          "internalType": "uint256",
          "name": "buy_amt",
          "type": "uint256"
        },
        {
          "internalType": "contract ERC20",
          "name": "buy_gem",
          "type": "address"
        }
      ],
      "name": "placeOffer",
      "outputs": [
        {
          "internalType": "uint256",
          "name": "",
          "type": "uint256"
        }
      ],
      "stateMutability": "nonpayable",
      "type": "function"
    },
    {
      "inputs": [
        {
          "internalType": "address",
          "name": "sisterBath",
          "type": "address"
        },
        {
          "internalType": "address",
          "name": "underlyingAsset",
          "type": "address"
        },
        {
          "internalType": "uint256",
          "name": "stratProportion",
          "type": "uint256"
        }
      ],
      "name": "rebalance",
      "outputs": [],
      "stateMutability": "nonpayable",
      "type": "function"
    },
    {
      "inputs": [
        {
          "internalType": "uint256",
          "name": "amt",
          "type": "uint256"
        }
      ],
      "name": "removeFilledTradeAmount",
      "outputs": [],
      "stateMutability": "nonpayable",
      "type": "function"
    },
    {
      "inputs": [
        {
          "internalType": "address",
          "name": "newBathHouse",
          "type": "address"
        }
      ],
      "name": "setBathHouse",
      "outputs": [],
      "stateMutability": "nonpayable",
      "type": "function"
    },
    {
      "inputs": [
        {
          "internalType": "uint256",
          "name": "_feeBPS",
          "type": "uint256"
        }
      ],
      "name": "setFeeBPS",
      "outputs": [],
      "stateMutability": "nonpayable",
      "type": "function"
    },
    {
      "inputs": [
        {
          "internalType": "address",
          "name": "_feeTo",
          "type": "address"
        }
      ],
      "name": "setFeeTo",
      "outputs": [],
      "stateMutability": "nonpayable",
      "type": "function"
    },
    {
      "inputs": [
        {
          "internalType": "address",
          "name": "newRubiconMarket",
          "type": "address"
        }
      ],
      "name": "setMarket",
      "outputs": [],
      "stateMutability": "nonpayable",
      "type": "function"
    },
    {
      "inputs": [],
      "name": "symbol",
      "outputs": [
        {
          "internalType": "string",
          "name": "",
          "type": "string"
        }
      ],
      "stateMutability": "view",
      "type": "function"
    },
    {
      "inputs": [],
      "name": "totalSupply",
      "outputs": [
        {
          "internalType": "uint256",
          "name": "",
          "type": "uint256"
        }
      ],
      "stateMutability": "view",
      "type": "function"
    },
    {
      "inputs": [
        {
          "internalType": "address",
          "name": "to",
          "type": "address"
        },
        {
          "internalType": "uint256",
          "name": "value",
          "type": "uint256"
        }
      ],
      "name": "transfer",
      "outputs": [
        {
          "internalType": "bool",
          "name": "",
          "type": "bool"
        }
      ],
      "stateMutability": "nonpayable",
      "type": "function"
    },
    {
      "inputs": [
        {
          "internalType": "address",
          "name": "from",
          "type": "address"
        },
        {
          "internalType": "address",
          "name": "to",
          "type": "address"
        },
        {
          "internalType": "uint256",
          "name": "value",
          "type": "uint256"
        }
      ],
      "name": "transferFrom",
      "outputs": [
        {
          "internalType": "bool",
          "name": "",
          "type": "bool"
        }
      ],
      "stateMutability": "nonpayable",
      "type": "function"
    },
    {
      "inputs": [],
      "name": "underlying",
      "outputs": [
        {
          "internalType": "address",
          "name": "",
          "type": "address"
        }
      ],
      "stateMutability": "view",
      "type": "function"
    },
    {
      "inputs": [],
      "name": "underlyingBalance",
      "outputs": [
        {
          "internalType": "uint256",
          "name": "",
          "type": "uint256"
        }
      ],
      "stateMutability": "view",
      "type": "function"
    },
    {
      "inputs": [],
      "name": "underlyingToken",
      "outputs": [
        {
          "internalType": "contract IERC20",
          "name": "",
          "type": "address"
        }
      ],
      "stateMutability": "view",
      "type": "function"
    },
    {
      "inputs": [
        {
          "internalType": "uint256",
          "name": "_shares",
          "type": "uint256"
        }
      ],
      "name": "withdraw",
      "outputs": [],
      "stateMutability": "nonpayable",
      "type": "function"
    }
  ],
  "bytecode": "0x60806040523480156200001c576000806200001962000023565b50505b5062000090565b632a2a7adb598160e01b8152600481016020815285602082015260005b868110156200005d57808601518282016040015260200162000040565b506020828760640184336000905af158600e01573d6000803e3d6000fd5b3d6001141558600a015760016000f35b505050565b6131a380620000a06000396000f3fe608060405234801561001957600080610016612c6a565b50505b50600436106101935760003560e01c8062efa895146101a1578063017e7e58146101cf57806306fdde03146101f3578063095ea7b3146102725780630b885ac3146102bb578063158ef93e146103a357806318160ddd146103ab5780631a1c6e53146103c557806323b872dd146103cd5780632495a5991461040c578063271e4426146104145780632e1a7d4d1461045957806330adf81f1461047f578063313ce567146104875780633644e515146104a557806359356c5c146104ad578063604b6a9c146104b557806360c38b28146104db57806360f71b24146104e35780636dcea85f146104eb5780636f307dc31461051a57806370a08231146105225780637ecebe0014610551578063831d26781461058057806395d89b41146105a6578063a9059cbb146105ae578063b3f865f7146105e3578063b42337c914610622578063b6b55f251461062a578063d505accf14610650578063dd62ed3e146106aa578063ebbc2082146106e1578063f46901ed14610710575b60008061019e612c6a565b50505b6101cd600480360360408110156101c0576000806101bd612c6a565b50505b508035906020013561073f565b005b6101d761094e565b6040516001600160a01b03909116815260200160405180910390f35b6101fb61096d565b60405160208082528190810183818151815260200191508051906020019080838360005b8381101561023757808201518382015260200161021f565b50505050905090810190601f1680156102645780820380516001836020036101000a031916815260200191505b509250505060405180910390f35b6102a7600480360360408110156102915760008061028e612c6a565b50505b506001600160a01b038135169060200135610a26565b604051901515815260200160405180910390f35b6101cd600480360360a08110156102da576000806102d7612c6a565b50505b810190602081018135600160201b8111156102fd576000806102fa612c6a565b50505b82018360208201111561031857600080610315612c6a565b50505b803590602001918460018302840111600160201b831117156103425760008061033f612c6a565b50505b91908080601f0160208091040260200160405190810160405281815292919060208401838380828437600092019190915250929550506001600160a01b03833581169450602084013581169360408101358216935060600135169050610a45565b6102a761100f565b6103b3611027565b60405190815260200160405180910390f35b6103b3611034565b6102a7600480360360608110156103ec576000806103e9612c6a565b50505b506001600160a01b0381358116916020810135909116906040013561103e565b6101d7611148565b6103b36004803603608081101561043357600080610430612c6a565b50505b508035906001600160a01b03602082013581169160408101359160609091013516611154565b6101cd6004803603602081101561047857600080610475612c6a565b50505b50356113e1565b6103b3611611565b61048f611623565b60405160ff909116815260200160405180910390f35b6103b361162f565b6103b3611639565b6101cd600480360360208110156104d4576000806104d1612c6a565b50505b50356117e7565b6101d7611860565b6101d761186c565b6101cd6004803603602081101561050a57600080610507612c6a565b50505b50356001600160a01b0316611878565b6101d7611910565b6103b3600480360360208110156105415760008061053e612c6a565b50505b50356001600160a01b0316611959565b6103b3600480360360208110156105705760008061056d612c6a565b50505b50356001600160a01b0316611971565b6101cd6004803603602081101561059f5760008061059c612c6a565b50505b5035611989565b6101fb611ac3565b6102a7600480360360408110156105cd576000806105ca612c6a565b50505b506001600160a01b038135169060200135611b65565b6101cd60048036036060811015610602576000806105ff612c6a565b50505b506001600160a01b03813581169160208101359091169060400135611b7a565b6103b361206c565b6101cd6004803603602081101561064957600080610646612c6a565b50505b5035612076565b6101cd600480360360e081101561066f5760008061066c612c6a565b50505b506001600160a01b03813581169160208101359091169060408101359060608101359060ff6080820135169060a08101359060c001356124eb565b6103b3600480360360408110156106c9576000806106c6612c6a565b50505b506001600160a01b0381358116916020013516612736565b6101cd60048036036020811015610700576000806106fd612c6a565b50505b50356001600160a01b031661275c565b6101cd6004803603602081101561072f5760008061072c612c6a565b50505b50356001600160a01b03166127d1565b6000600461074b612cd5565b906101000a90046001600160a01b03166001600160a01b031663ca3a86cd5a610772612d35565b6040516001600160e01b031960e084901b1681526001600160a01b03909116600482015260240160206040518083038186806107ac612d7b565b1580156107c1576000806107be612c6a565b50505b505a6107cb612dc7565b50505050501580156107ea573d6000803e3d60006107e7612c6a565b50505b505050506040513d602081101561080957600080610806612c6a565b50505b810190808051151560011492506108609150505760405162461bcd60e51b8152602060048201819052602482015260008051602061318383398151915260448201526064016040518091039061085d612c6a565b50505b61087481600961086e612cd5565b90612846565b80600961087f612eb2565b505050600360019061088f612cd5565b906101000a90046001600160a01b03166001600160a01b03166340e58ee5836040516001600160e01b031960e084901b1681526004810191909152602401602060405180830381600087806108e2612d7b565b1580156108f7576000806108f4612c6a565b50505b505a610901612f00565b505050505050158015610921573d6000803e3d600061091e612c6a565b50505b505050506040513d60208110156109405760008061093d612c6a565b50505b810190808051505050505050565b6000600561095a612cd5565b906101000a90046001600160a01b031681565b600280610978612cd5565b600181600116156101000203166002900480601f0160208091040260200160405190810160405281815291906020830182806109b2612cd5565b60018160011615610100020316600290048015610a1e5780601f106109ec5761010080836109de612cd5565b040283529160200191610a1e565b820191906000526020600020905b81610a03612cd5565b815290600101906020018083116109fa57829003601f168201915b505050505081565b6000610a3b5a610a34612d35565b84846128ab565b5060015b92915050565b600080610a50612cd5565b906101000a900460ff1615610a6d57600080610a6a612c6a565b50505b6001858051610a80929160200190612fc6565b50836006600181610a8f612cd5565b816001600160a01b0302191690836001600160a01b0316021790610ab1612eb2565b50505082600360016101000a81610ac6612cd5565b816001600160a01b0302191690836001600160a01b0316021790610ae8612eb2565b50505081600460006101000a81610afd612cd5565b816001600160a01b0302191690836001600160a01b0316021790610b1f612eb2565b50505060005a610b2d613076565b90507f8b73c3c69bb8fe3d512ecc4cf759cc79239f7b179b0ffacaa9a75d522b39400f6002604051808280610b60612cd5565b60018160011615610100020316600290048015610bc25780601f10610b99576101008083610b8c612cd5565b0402835291820191610bc2565b820191906000526020600020905b81610bb0612cd5565b81529060010190602001808311610ba7575b505091505060405180910390206040516040808201905260018152603160f81b602082015280519060200120835a63996d79a5598160e01b8152602081600483336000905af158600e01573d6000803e3d6000fd5b3d6001141558600a015760016000f35b8051925060005b6040811015610c4557600082820152602001610c2e565b5050506040516020810195909552604080860194909452606085019290925260808401526001600160a01b031660a083015260c090910190516020818303038152906040528051906020012080600e610c9c612eb2565b50505060405160408082019052600c81526b42617468546f6b656e20763160a01b60208201526002908051610cd5929160200190612fc6565b5060126003600181610ce5612cd5565b8160ff021916908360ff16021790610cfb612eb2565b5050506003600190610d0b612cd5565b906101000a90046001600160a01b03166001600160a01b031663158ef93e6040518163ffffffff1660e01b81526004016020604051808303818680610d4e612d7b565b158015610d6357600080610d60612c6a565b50505b505a610d6d612dc7565b5050505050158015610d8c573d6000803e3d6000610d89612c6a565b50505b505050506040513d6020811015610dab57600080610da8612c6a565b50505b81019080805192505081159050610e74575060006004610dc9612cd5565b906101000a90046001600160a01b03166001600160a01b031663158ef93e6040518163ffffffff1660e01b81526004016020604051808303818680610e0c612d7b565b158015610e2157600080610e1e612c6a565b50505b505a610e2b612dc7565b5050505050158015610e4a573d6000803e3d6000610e47612c6a565b50505b505050506040513d6020811015610e6957600080610e66612c6a565b50505b810190808051925050505b610e8657600080610e83612c6a565b50505b6001600160a01b03851663095ea7b360016003610ea1612cd5565b906101000a90046001600160a01b03166000196040516001600160e01b031960e085901b1681526001600160a01b039092166004830152602482015260440160206040518083038160008780610ef5612d7b565b158015610f0a57600080610f07612c6a565b50505b505a610f14612f00565b505050505050158015610f34573d6000803e3d6000610f31612c6a565b50505b505050506040513d6020811015610f5357600080610f50612c6a565b50505b810190808051507f62d3d1f1d9801a81e18d50c29dbd4af6f8aa76a0859f432482ac2574e3d2a4f6925050505a610f886130bc565b60405190815260200160405180910390a1816005600181610fa7612cd5565b816001600160a01b0302191690836001600160a01b0316021790610fc9612eb2565b505050600060078190610fda612eb2565b50505060016000806101000a81610fef612cd5565b8160ff02191690831515021790611004612eb2565b505050505050505050565b60008061101a612cd5565b906101000a900460ff1681565b6008611031612cd5565b81565b6007611031612cd5565b6001600160a01b0383166000908152600d6020526000196040822060005a611064612d35565b6001600160a01b03166001600160a01b0316815260200190815260200160002061108c612cd5565b14611133576001600160a01b0384166000908152600d6020526110e29083906040902060005a6110ba612d35565b6001600160a01b03166001600160a01b0316815260200190815260200160002061086e612cd5565b6001600160a01b0385166000908152600d6020526040902060005a611105612d35565b6001600160a01b03166001600160a01b03168152602001908152602001600020819061112f612eb2565b5050505b61113e848484612937565b5060019392505050565b6000600661095a612cd5565b6000806004611161612cd5565b906101000a90046001600160a01b03166001600160a01b031663ca3a86cd5a611188612d35565b6040516001600160e01b031960e084901b1681526001600160a01b03909116600482015260240160206040518083038186806111c2612d7b565b1580156111d7576000806111d4612c6a565b50505b505a6111e1612dc7565b5050505050158015611200573d6000803e3d60006111fd612c6a565b50505b505050506040513d602081101561121f5760008061121c612c6a565b50505b810190808051151560011492506112769150505760405162461bcd60e51b81526020600482018190526024820152600080516020613183833981519152604482015260640160405180910390611273612c6a565b50505b84158061128a57506001600160a01b038416155b80611293575082155b806112a557506001600160a01b038216155b156112b2575060006113d9565b6000600160036112c0612cd5565b906101000a90046001600160a01b03166001600160a01b031663e1a6f014878787876000806040516001600160e01b031960e089901b16815260048101969096526001600160a01b0394851660248701526044860193909352921660648401526084830191909152151560a482015260c40160206040518083038160008780611347612d7b565b15801561135c57600080611359612c6a565b50505b505a611366612f00565b505050505050158015611386573d6000803e3d6000611383612c6a565b50505b505050506040513d60208110156113a5576000806113a2612c6a565b50505b81019080805193506113c79250889150600990506113c1612cd5565b90612a07565b8060096113d2612eb2565b5091925050505b949350505050565b600061140860086113f0612cd5565b611402846113fc611639565b90612a6e565b90612acd565b905061141c5a611416612d35565b83612b39565b60006114386127106114026007611431612cd5565b8590612a6e565b905060006006611446612cd5565b6001600160a01b036101009290920a90041663a9059cbb60006005611469612cd5565b906101000a90046001600160a01b0316836040516001600160e01b031960e085901b1681526001600160a01b0390921660048301526024820152604401602060405180830381600087806114bb612d7b565b1580156114d0576000806114cd612c6a565b50505b505a6114da612f00565b5050505050501580156114fa573d6000803e3d60006114f7612c6a565b50505b505050506040513d602081101561151957600080611516612c6a565b50505b8101908080515060009250600691506115329050612cd5565b906101000a90046001600160a01b03166001600160a01b031663a9059cbb5a611559612d35565b6115638585612846565b6040516001600160e01b031960e085901b1681526001600160a01b0390921660048301526024820152604401602060405180830381600087806115a4612d7b565b1580156115b9576000806115b6612c6a565b50505b505a6115c3612f00565b5050505050501580156115e3573d6000803e3d60006115e0612c6a565b50505b505050506040513d6020811015611602576000806115ff612c6a565b50505b81019080805150505050505050565b60008051602061316383398151915281565b6000600361101a612cd5565b600e611031612cd5565b60008080611645612cd5565b906101000a900460ff166116a45760405162461bcd60e51b815260206004820152601960248201527810985d1a151bdad95b881b9bdd081a5b9a5d1a585b1a5e9959603a1b6044820152606401604051809103906116a1612c6a565b50505b60008060066116b1612cd5565b906101000a90046001600160a01b03166001600160a01b03166370a082315a63996d79a5598160e01b8152602081600483336000905af158600e01573d6000803e3d6000fd5b3d6001141558600a015760016000f35b8051925060005b60408110156117255760008282015260200161170e565b5050506040516001600160e01b031960e084901b1681526001600160a01b0390911660048201526024016020604051808303818680611762612d7b565b15801561177757600080611774612c6a565b50505b505a611781612dc7565b50505050501580156117a0573d6000803e3d600061179d612c6a565b50505b505050506040513d60208110156117bf576000806117bc612c6a565b50505b81019080805193506117e19250600991506117da9050612cd5565b8290612a07565b91505090565b600060046117f3612cd5565b906101000a90046001600160a01b03166001600160a01b03165a611815612d35565b6001600160a01b031614801561183c5750600080611831612cd5565b906101000a900460ff165b61184e5760008061184b612c6a565b50505b8080600761185a612eb2565b50505050565b6000600461095a612cd5565b6001600361095a612cd5565b60006004611884612cd5565b906101000a90046001600160a01b03166001600160a01b03165a6118a6612d35565b6001600160a01b03161480156118cd57506000806118c2612cd5565b906101000a900460ff165b6118df576000806118dc612c6a565b50505b806003610100816118ee612cd5565b816001600160a01b0302191690836001600160a01b031602179061185a612eb2565b6000808061191c612cd5565b906101000a900460ff1661193857600080611935612c6a565b50505b60006006611944612cd5565b906101000a90046001600160a01b0316905090565b600c6020528060005260406000209050611031612cd5565b600f6020528060005260406000209050611031612cd5565b60006004611995612cd5565b906101000a90046001600160a01b03166001600160a01b031663ca3a86cd5a6119bc612d35565b6040516001600160e01b031960e084901b1681526001600160a01b03909116600482015260240160206040518083038186806119f6612d7b565b158015611a0b57600080611a08612c6a565b50505b505a611a15612dc7565b5050505050158015611a34573d6000803e3d6000611a31612c6a565b50505b505050506040513d6020811015611a5357600080611a50612c6a565b50505b81019080805115156001149250611aaa9150505760405162461bcd60e51b81526020600482018190526024820152600080516020613183833981519152604482015260640160405180910390611aa7612c6a565b50505b611ab881600961086e612cd5565b80600961185a612eb2565b600180611ace612cd5565b600181600116156101000203166002900480601f016020809104026020016040519081016040528181529190602083018280611b08612cd5565b60018160011615610100020316600290048015610a1e5780601f10611b345761010080836109de612cd5565b820191906000526020600020905b81611b4b612cd5565b81529060010190602001808311611b425750859350505050565b6000610a3b5a611b73612d35565b8484612937565b60006004611b86612cd5565b906101000a90046001600160a01b03166001600160a01b031663ca3a86cd5a611bad612d35565b6040516001600160e01b031960e084901b1681526001600160a01b0390911660048201526024016020604051808303818680611be7612d7b565b158015611bfc57600080611bf9612c6a565b50505b505a611c06612dc7565b5050505050158015611c25573d6000803e3d6000611c22612c6a565b50505b505050506040513d6020811015611c4457600080611c41612c6a565b50505b81019080805115156001149250611c9b9150505760405162461bcd60e51b81526020600482018190526024820152600080516020613183833981519152604482015260640160405180910390611c98612c6a565b50505b600080611ca6612cd5565b906101000a900460ff16611cc257600080611cbf612c6a565b50505b6000611ddd612710611402856001600160a01b03166370a082315a63996d79a5598160e01b8152602081600483336000905af158600e01573d6000803e3d6000fd5b3d6001141558600a015760016000f35b8051925060005b6040811015611d3257600082820152602001611d1b565b5050506040516001600160e01b031960e084901b1681526001600160a01b0390911660048201526024016020604051808303818680611d6f612d7b565b158015611d8457600080611d81612c6a565b50505b505a611d8e612dc7565b5050505050158015611dad573d6000803e3d6000611daa612c6a565b50505b505050506040513d6020811015611dcc57600080611dc9612c6a565b50505b810190808051889350915050612a6e565b90506001600160a01b03831663a9059cbb85611efa84846370a082315a63996d79a5598160e01b8152602081600483336000905af158600e01573d6000803e3d6000fd5b3d6001141558600a015760016000f35b8051925060005b6040811015611e4f57600082820152602001611e38565b5050506040516001600160e01b031960e084901b1681526001600160a01b0390911660048201526024016020604051808303818680611e8c612d7b565b158015611ea157600080611e9e612c6a565b50505b505a611eab612dc7565b5050505050158015611eca573d6000803e3d6000611ec7612c6a565b50505b505050506040513d6020811015611ee957600080611ee6612c6a565b50505b810190808051939250506128469050565b6040516001600160e01b031960e085901b1681526001600160a01b039092166004830152602482015260440160206040518083038160008780611f3b612d7b565b158015611f5057600080611f4d612c6a565b50505b505a611f5a612f00565b505050505050158015611f7a573d6000803e3d6000611f77612c6a565b50505b505050506040513d6020811015611f9957600080611f96612c6a565b50505b8101908080515050506001600160a01b038416905063a9059cbb5a611fbc612d35565b836040516001600160e01b031960e085901b1681526001600160a01b039092166004830152602482015260440160206040518083038160008780611ffe612d7b565b15801561201357600080612010612c6a565b50505b505a61201d612f00565b50505050505015801561203d573d6000803e3d600061203a612c6a565b50505b505050506040513d602081101561205c57600080612059612c6a565b50505b8101908080515050505050505050565b6009611031612cd5565b6000612080611639565b9050600080600661208f612cd5565b906101000a90046001600160a01b03166001600160a01b03166370a082315a63996d79a5598160e01b8152602081600483336000905af158600e01573d6000803e3d6000fd5b3d6001141558600a015760016000f35b8051925060005b6040811015612103576000828201526020016120ec565b5050506040516001600160e01b031960e084901b1681526001600160a01b0390911660048201526024016020604051808303818680612140612d7b565b15801561215557600080612152612c6a565b50505b505a61215f612dc7565b505050505015801561217e573d6000803e3d600061217b612c6a565b50505b505050506040513d602081101561219d5760008061219a612c6a565b50505b810190808051935060009250600691506121b79050612cd5565b906101000a90046001600160a01b03166001600160a01b03166323b872dd5a6121de612d35565b5a63996d79a5598160e01b8152602081600483336000905af158600e01573d6000803e3d6000fd5b3d6001141558600a015760016000f35b8051925060005b60408110156122345760008282015260200161221d565b505050866040516001600160e01b031960e086901b1681526001600160a01b039384166004820152919092166024820152604481019190915260640160206040518083038160008780612285612d7b565b15801561229a57600080612297612c6a565b50505b505a6122a4612f00565b5050505050501580156122c4573d6000803e3d60006122c1612c6a565b50505b505050506040513d60208110156122e3576000806122e0612c6a565b50505b8101908080515060009250829150600690506122fd612cd5565b906101000a90046001600160a01b03166001600160a01b03166370a082315a63996d79a5598160e01b8152602081600483336000905af158600e01573d6000803e3d6000fd5b3d6001141558600a015760016000f35b8051925060005b60408110156123715760008282015260200161235a565b5050506040516001600160e01b031960e084901b1681526001600160a01b03909116600482015260240160206040518083038186806123ae612d7b565b1580156123c3576000806123c0612c6a565b50505b505a6123cd612dc7565b50505050501580156123ec573d6000803e3d60006123e9612c6a565b50505b505050506040513d602081101561240b57600080612408612c6a565b50505b81019080805193506124239250839150849050612846565b935060006008612431612cd5565b61243c575083612457565b61245484611402600861244d612cd5565b8890612a6e565b90505b6124695a612463612d35565b82612bd2565b7f05e57fa62d890603d85944c963ddc7fbe77cde5ea69cad7033fc6f76b7ddd2ab8560006006612497612cd5565b906101000a90046001600160a01b0316835a6124b1612d35565b6040519384526001600160a01b03928316602085015260408085019290925290911660608301526080909101905180910390a15050505050565b5a6124f46130bc565b8410156125455760405162461bcd60e51b815260206004820152601260248201527118985d1a151bdad95b8e881156141254915160721b604482015260640160405180910390612542612c6a565b50505b6000600e612551612cd5565b6001600160a01b0389166000908152600f602052600080516020613163833981519152908a908a908a906040902060008161258a612cd5565b91600183019150612599612eb2565b50508a60405160200180878152602001866001600160a01b03168152602001856001600160a01b0316815260200184815260200183815260200182815260200196505050505050506040516020818303038152906040528051906020012060405161190160f01b602082015260228101929092526042820152606201604051602081830303815290604052805190602001209050600060018286868660405160008152602001604052604051808581526020018460ff1681526020018381526020018281526020019450505050506020604051602081039080840390855a61267f612dc7565b505050505015801561269e573d6000803e3d600061269b612c6a565b50505b5050506020604051035190506001600160a01b038116158015906126d35750886001600160a01b0316816001600160a01b0316145b61272b5760405162461bcd60e51b815260206004820152601c60248201527b62617468546f6b656e3a20494e56414c49445f5349474e415455524560201b604482015260640160405180910390612728612c6a565b50505b6110048989896128ab565b600d60205281600052604060002060205280600052604060002091506110319050612cd5565b60006004612768612cd5565b906101000a90046001600160a01b03166001600160a01b03165a61278a612d35565b6001600160a01b03161480156127b157506000806127a6612cd5565b906101000a900460ff165b6127c3576000806127c0612c6a565b50505b8060046001816118ee612cd5565b600060046127dd612cd5565b906101000a90046001600160a01b03166001600160a01b03165a6127ff612d35565b6001600160a01b0316148015612826575060008061281b612cd5565b906101000a900460ff165b61283857600080612835612c6a565b50505b8060056001816118ee612cd5565b6000828211156128a55760405162461bcd60e51b815260206004820152601e60248201527f536166654d6174683a207375627472616374696f6e206f766572666c6f7700006044820152606401604051809103906128a2612c6a565b50505b50900390565b6001600160a01b0383166000908152600d6020528190604090206001600160a01b03841660009081526020919091526040902081906128e8612eb2565b505050816001600160a01b0316836001600160a01b03167f8c5be1e5ebec7d5bd14f71427d1e84f3dd0314c0f7b2291e5b200ac8c7c3b9258360405190815260200160405180910390a3505050565b6001600160a01b0383166000908152600c60205261295d9082906040902061086e612cd5565b6001600160a01b0384166000908152600c60205260409020819061297f612eb2565b5050506001600160a01b0382166000908152600c6020526129a8908290604090206113c1612cd5565b6001600160a01b0383166000908152600c6020526040902081906129ca612eb2565b505050816001600160a01b0316836001600160a01b03166000805160206131438339815191528360405190815260200160405180910390a3505050565b600082820183811015612a675760405162461bcd60e51b815260206004820152601b60248201527a536166654d6174683a206164646974696f6e206f766572666c6f7760281b604482015260640160405180910390612a64612c6a565b50505b9392505050565b600082612a7d57506000610a3f565b82820282848281612a8a57fe5b0414612a675760405162461bcd60e51b81526004018080602001828103825260218152602001806131226021913960400191505060405180910390612a64612c6a565b6000808211612b285760405162461bcd60e51b815260206004820152601a602482015279536166654d6174683a206469766973696f6e206279207a65726f60301b604482015260640160405180910390612b25612c6a565b50505b818381612b3157fe5b049392505050565b6001600160a01b0382166000908152600c602052612b5f9082906040902061086e612cd5565b6001600160a01b0383166000908152600c602052604090208190612b81612eb2565b505050612b9281600861086e612cd5565b806008612b9d612eb2565b5060009150506001600160a01b0383166000805160206131438339815191528360405190815260200160405180910390a35050565b612be08160086113c1612cd5565b806008612beb612eb2565b5050506001600160a01b0382166000908152600c602052612c14908290604090206113c1612cd5565b6001600160a01b0383166000908152600c602052604090208190612c36612eb2565b5050506001600160a01b03821660006000805160206131438339815191528360405190815260200160405180910390a35050565b632a2a7adb598160e01b8152600481016020815285602082015260005b86811015612ca2578086015182820160400152602001612c87565b506020828760640184336000905af158600e01573d6000803e3d6000fd5b3d6001141558600a015760016000f35b505050565b6303daa959598160e01b8152836004820152602081602483336000905af158600e01573d6000803e3d6000fd5b3d6001141558600a015760016000f35b8051935060005b6040811015612d3057600082820152602001612d19565b505050565b6373509064598160e01b8152602081600483336000905af158600e01573d6000803e3d6000fd5b3d6001141558600a015760016000f35b80516000825293506020612d19565b638435035b598160e01b8152836004820152602081602483336000905af158600e01573d6000803e3d6000fd5b3d6001141558600a015760016000f35b80516000825293506020612d19565b638540661f598160e01b8152612df8565b8080831115610a3f575090919050565b8080831015610a3f575090919050565b836004820152846024820152606060448201528660648201526084810160005b88811015612e30578088015182820152602001612e18565b506060828960a40184336000905af158600e01573d6000803e3d6000fd5b3d6001141558600a015760016000f35b815160408301513d6000853e8b8b82606087013350600060045af15059612e858d3d612de8565b8c01612e918187612dd8565b5b82811015612ea65760008152602001612e92565b50929c50505050505050565b6322bd64c0598160e01b8152836004820152846024820152600081604483336000905af158600e01573d6000803e3d6000fd5b3d6001141558600a015760016000f35b600081526020612d19565b6385979f76598160e01b8152836004820152846024820152606060448201528760648201526084810160005b89811015612f44578089015182820152602001612f2c565b506060828a60a40184336000905af158600e01573d6000803e3d6000fd5b3d6001141558600a015760016000f35b815160408301513d6000853e8c8c82606087013350600060045af15059612f998e3d612de8565b8d01612fa58187612dd8565b5b82811015612fba5760008152602001612fa6565b50929d50505050505050565b8280612fd0612cd5565b600181600116156101000203166002900490600052602060002090601f01602090048101928261300c57600085613005612eb2565b5050613066565b82601f1061302757805160ff19168380011785613005612eb2565b82800160010185613036612eb2565b50508215613066579182015b8281111561306657825182613055612eb2565b505091602001919060010190613042565b50613072929150613102565b5090565b6390580256598160e01b8152602081600483336000905af158600e01573d6000803e3d6000fd5b3d6001141558600a015760016000f35b80516000825293506020612d19565b63bdbf8c36598160e01b8152602081600483336000905af158600e01573d6000803e3d6000fd5b3d6001141558600a015760016000f35b80516000825293506020612d19565b808211156130725760008082613116612eb2565b50505060010161310256fe536166654d6174683a206d756c7469706c69636174696f6e206f766572666c6f77ddf252ad1be2c89b69c2b068fc378daa952ba7f163c4a11628f55a4df523b3ef6e71edae12b1b97f4d1f60370fef10105fa2faae0126114a169c64845d6126c96e6f7420616e20617070726f7665642070616972202d2062617468546f6b656e",
  "linkReferences": {},
  "deployedLinkReferences": {}
}