{
  "_format": "hh-sol-artifact-1",
  "contractName": "BathPair",
  "sourceName": "contracts/rubiconPools/BathPair.sol",
  "abi": [
    {
      "anonymous": false,
      "inputs": [
        {
          "indexed": false,
          "internalType": "uint256",
          "name": "askId",
          "type": "uint256"
        },
        {
          "indexed": false,
          "internalType": "uint256",
          "name": "askAmt",
          "type": "uint256"
        },
        {
          "indexed": false,
          "internalType": "uint256",
          "name": "bidId",
          "type": "uint256"
        },
        {
          "indexed": false,
          "internalType": "uint256",
          "name": "bidAmt",
          "type": "uint256"
        },
        {
          "indexed": false,
          "internalType": "uint256",
          "name": "timestamp",
          "type": "uint256"
        },
        {
          "indexed": false,
          "internalType": "address",
          "name": "strategist",
          "type": "address"
        }
      ],
      "name": "LogStrategistTrade",
      "type": "event"
    },
    {
      "anonymous": false,
      "inputs": [
        {
          "indexed": false,
          "internalType": "address",
          "name": "strategist",
          "type": "address"
        },
        {
          "indexed": false,
          "internalType": "address",
          "name": "asset",
          "type": "address"
        },
        {
          "indexed": false,
          "internalType": "uint256",
          "name": "amountOfReward",
          "type": "uint256"
        },
        {
          "indexed": false,
          "internalType": "uint256",
          "name": "timestamp",
          "type": "uint256"
        }
      ],
      "name": "StrategistRewardClaim",
      "type": "event"
    },
    {
      "inputs": [],
      "name": "RubiconMarketAddress",
      "outputs": [
        {
          "internalType": "address",
          "name": "",
          "type": "address"
        }
      ],
      "stateMutability": "view",
      "type": "function"
    },
    {
      "inputs": [],
      "name": "bathAssetAddress",
      "outputs": [
        {
          "internalType": "address",
          "name": "",
          "type": "address"
        }
      ],
      "stateMutability": "view",
      "type": "function"
    },
    {
      "inputs": [],
      "name": "bathHouse",
      "outputs": [
        {
          "internalType": "address",
          "name": "",
          "type": "address"
        }
      ],
      "stateMutability": "view",
      "type": "function"
    },
    {
      "inputs": [],
      "name": "bathQuoteAddress",
      "outputs": [
        {
          "internalType": "address",
          "name": "",
          "type": "address"
        }
      ],
      "stateMutability": "view",
      "type": "function"
    },
    {
      "inputs": [],
      "name": "bathScrub",
      "outputs": [],
      "stateMutability": "nonpayable",
      "type": "function"
    },
    {
      "inputs": [
        {
          "internalType": "uint256",
          "name": "askNumerator",
          "type": "uint256"
        },
        {
          "internalType": "uint256",
          "name": "askDenominator",
          "type": "uint256"
        },
        {
          "internalType": "uint256",
          "name": "bidNumerator",
          "type": "uint256"
        },
        {
          "internalType": "uint256",
          "name": "bidDenominator",
          "type": "uint256"
        }
      ],
      "name": "executeStrategy",
      "outputs": [],
      "stateMutability": "nonpayable",
      "type": "function"
    },
    {
      "inputs": [
        {
          "internalType": "address",
          "name": "asset",
          "type": "address"
        },
        {
          "internalType": "address",
          "name": "bathTokenAddress",
          "type": "address"
        }
      ],
      "name": "getMaxOrderSize",
      "outputs": [
        {
          "internalType": "uint256",
          "name": "maxOrderSize",
          "type": "uint256"
        }
      ],
      "stateMutability": "view",
      "type": "function"
    },
    {
      "inputs": [],
      "name": "getOutstandingPairCount",
      "outputs": [
        {
          "internalType": "uint256",
          "name": "",
          "type": "uint256"
        }
      ],
      "stateMutability": "view",
      "type": "function"
    },
    {
      "inputs": [],
      "name": "getSearchRadius",
      "outputs": [
        {
          "internalType": "uint256",
          "name": "",
          "type": "uint256"
        }
      ],
      "stateMutability": "view",
      "type": "function"
    },
    {
      "inputs": [],
      "name": "getThisBathAsset",
      "outputs": [
        {
          "internalType": "address",
          "name": "",
          "type": "address"
        }
      ],
      "stateMutability": "view",
      "type": "function"
    },
    {
      "inputs": [],
      "name": "getThisBathQuote",
      "outputs": [
        {
          "internalType": "address",
          "name": "",
          "type": "address"
        }
      ],
      "stateMutability": "view",
      "type": "function"
    },
    {
      "inputs": [
        {
          "internalType": "address",
          "name": "_bathAssetAddress",
          "type": "address"
        },
        {
          "internalType": "address",
          "name": "_bathQuoteAddress",
          "type": "address"
        },
        {
          "internalType": "address",
          "name": "_bathHouse",
          "type": "address"
        },
        {
          "internalType": "uint256",
          "name": "_maxOrderSizeBPS",
          "type": "uint256"
        },
        {
          "internalType": "int128",
          "name": "_shapeCoefNum",
          "type": "int128"
        }
      ],
      "name": "initialize",
      "outputs": [],
      "stateMutability": "nonpayable",
      "type": "function"
    },
    {
      "inputs": [],
      "name": "initialized",
      "outputs": [
        {
          "internalType": "bool",
          "name": "",
          "type": "bool"
        }
      ],
      "stateMutability": "view",
      "type": "function"
    },
    {
      "inputs": [],
      "name": "maxOrderSizeBPS",
      "outputs": [
        {
          "internalType": "uint256",
          "name": "",
          "type": "uint256"
        }
      ],
      "stateMutability": "view",
      "type": "function"
    },
    {
      "inputs": [
        {
          "internalType": "uint256",
          "name": "",
          "type": "uint256"
        }
      ],
      "name": "outstandingPairIDs",
      "outputs": [
        {
          "internalType": "uint256",
          "name": "askId",
          "type": "uint256"
        },
        {
          "internalType": "uint256",
          "name": "askAmt",
          "type": "uint256"
        },
        {
          "internalType": "uint256",
          "name": "bidId",
          "type": "uint256"
        },
        {
          "internalType": "uint256",
          "name": "bidAmt",
          "type": "uint256"
        },
        {
          "internalType": "uint256",
          "name": "timestamp",
          "type": "uint256"
        },
        {
          "internalType": "address",
          "name": "strategist",
          "type": "address"
        }
      ],
      "stateMutability": "view",
      "type": "function"
    },
    {
      "inputs": [
        {
          "internalType": "uint256",
          "name": "id",
          "type": "uint256"
        }
      ],
      "name": "removeLiquidity",
      "outputs": [],
      "stateMutability": "nonpayable",
      "type": "function"
    },
    {
      "inputs": [
        {
          "internalType": "uint16",
          "name": "val",
          "type": "uint16"
        }
      ],
      "name": "setMaxOrderSizeBPS",
      "outputs": [],
      "stateMutability": "nonpayable",
      "type": "function"
    },
    {
      "inputs": [
        {
          "internalType": "uint256",
          "name": "val",
          "type": "uint256"
        }
      ],
      "name": "setSearchRadius",
      "outputs": [],
      "stateMutability": "nonpayable",
      "type": "function"
    },
    {
      "inputs": [
        {
          "internalType": "int128",
          "name": "val",
          "type": "int128"
        }
      ],
      "name": "setShapeCoefNum",
      "outputs": [],
      "stateMutability": "nonpayable",
      "type": "function"
    },
    {
      "inputs": [
        {
          "internalType": "address",
          "name": "",
          "type": "address"
        }
      ],
      "name": "strategist2FillsAsset",
      "outputs": [
        {
          "internalType": "uint256",
          "name": "",
          "type": "uint256"
        }
      ],
      "stateMutability": "view",
      "type": "function"
    },
    {
      "inputs": [
        {
          "internalType": "address",
          "name": "",
          "type": "address"
        }
      ],
      "name": "strategist2FillsQuote",
      "outputs": [
        {
          "internalType": "uint256",
          "name": "",
          "type": "uint256"
        }
      ],
      "stateMutability": "view",
      "type": "function"
    },
    {
      "inputs": [],
      "name": "strategistBootyClaim",
      "outputs": [],
      "stateMutability": "nonpayable",
      "type": "function"
    },
    {
      "inputs": [],
      "name": "underlyingAsset",
      "outputs": [
        {
          "internalType": "address",
          "name": "",
          "type": "address"
        }
      ],
      "stateMutability": "view",
      "type": "function"
    },
    {
      "inputs": [],
      "name": "underlyingQuote",
      "outputs": [
        {
          "internalType": "address",
          "name": "",
          "type": "address"
        }
      ],
      "stateMutability": "view",
      "type": "function"
    }
  ],
  "bytecode": "0x60806040523480156200001c576000806200001962000023565b50505b5062000090565b632a2a7adb598160e01b8152600481016020815285602082015260005b868110156200005d57808601518282016040015260200162000040565b506020828760640184336000905af158600e01573d6000803e3d6000fd5b3d6001141558600a015760016000f35b505050565b614ea180620000a06000396000f3fe608060405234801561001957600080610016614508565b50505b50600436106101305760003560e01c80623acabc1461013e578063028d01fe1461015c57806314a933b214610171578063158ef93e1461018457806318447307146101995780632646df26146101ac5780632af95644146101b457806335bac71e146101c75780633c4fc85d146101da57806349fd49e8146101e257806360c38b281461020757806360f71b241461020f578063613e8993146102175780637158da7c1461021f57806371a4188b146102275780637d1c98fa1461024757806398ef30411461025a5780639c8f9f2314610262578063a7001d2314610275578063ac90539c14610288578063af07acb214610290578063c12e818514610298578063ca8c4329146102a0578063e22a7807146102a8575b60008061013b614508565b50505b6101466102b0565b6040516101539190614b64565b60405180910390f35b61016f61016a366004614a33565b6102fc565b005b61016f61017f366004614a64565b61035b565b61018c6103b0565b6040516101539190614be1565b61016f6101a7366004614a10565b6103c9565b61016f610445565b61016f6101c2366004614975565b61044f565b61016f6101d5366004614afa565b610ad1565b61016f6115f5565b6101f56101f0366004614a64565b611be6565b60405161015396959493929190614e10565b610146611c78565b610146611c96565b610146611ca2565b610146611cae565b61023a6102353660046148ea565b611cba565b6040516101539190614dd2565b61023a6102553660046148ea565b611cd5565b610146611ced565b61016f610270366004614a64565b611cf9565b61023a610283366004614934565b6120f5565b61023a6124c3565b6101466124d6565b61023a6124e2565b61023a6124f3565b6101466124fd565b6000601460056102be614573565b906101000a900460ff166102da576000806102d7614508565b50505b600060036102e6614573565b906101000a90046001600160a01b031690505b90565b600080610307614573565b906101000a90046001600160a01b03166001600160a01b03165a6103296145ce565b6001600160a01b03161461034557600080610342614508565b50505b61ffff8116806007610355614614565b50505050565b600080610366614573565b906101000a90046001600160a01b03166001600160a01b03165a6103886145ce565b6001600160a01b0316146103a4576000806103a1614508565b50505b80806009610355614614565b601460056103bc614573565b906101000a900460ff1681565b6000806103d4614573565b906101000a90046001600160a01b03166001600160a01b03165a6103f66145ce565b6001600160a01b0316146104125760008061040f614508565b50505b806006600181610420614573565b816001600160801b030219169083600f0b6001600160801b0316021790610355614614565b61044d612533565b565b6014600561045b614573565b906101000a900460ff161561047857600080610475614508565b50505b826000600181610486614573565b816001600160a01b0302191690836001600160a01b03160217906104a8614614565b50505084600360006101000a816104bd614573565b816001600160a01b0302191690836001600160a01b03160217906104df614614565b50505083600460006101000a816104f4614573565b816001600160a01b0302191690836001600160a01b0316021790610516614614565b50600091508190506003610528614573565b906101000a90046001600160a01b03166001600160a01b0316636f307dc36040518163ffffffff1660e01b8152600401602060405180830381868061056b614662565b1580156105805760008061057d614508565b50505b505a61058a6146ae565b50505050501580156105a9573d6000803e3d60006105a6614508565b50505b50505050604051601f3d908101601f191682016040526105cc919081019061490f565b6001600160a01b031614156105e9576000806105e6614508565b50505b60008060046105f6614573565b906101000a90046001600160a01b03166001600160a01b0316636f307dc36040518163ffffffff1660e01b81526004016020604051808303818680610639614662565b15801561064e5760008061064b614508565b50505b505a6106586146ae565b5050505050158015610677573d6000803e3d6000610674614508565b50505b50505050604051601f3d908101601f1916820160405261069a919081019061490f565b6001600160a01b031614156106b7576000806106b4614508565b50505b600060036106c3614573565b906101000a90046001600160a01b03166001600160a01b0316636f307dc36040518163ffffffff1660e01b81526004016020604051808303818680610706614662565b15801561071b57600080610718614508565b50505b505a6107256146ae565b5050505050158015610744573d6000803e3d6000610741614508565b50505b50505050604051601f3d908101601f19168201604052610767919081019061490f565b60018080610773614573565b816001600160a01b0302191690836001600160a01b0316021790610795614614565b50505060046000906107a5614573565b906101000a90046001600160a01b03166001600160a01b0316636f307dc36040518163ffffffff1660e01b815260040160206040518083038186806107e8614662565b1580156107fd576000806107fa614508565b50505b505a6108076146ae565b5050505050158015610826573d6000803e3d6000610823614508565b50505b50505050604051601f3d908101601f19168201604052610849919081019061490f565b6002600181610856614573565b816001600160a01b0302191690836001600160a01b0316021790610878614614565b50505060006001600160a01b0316600080610891614573565b906101000a90046001600160a01b03166001600160a01b031663f1be16796040518163ffffffff1660e01b815260040160206040518083038186806108d4614662565b1580156108e9576000806108e6614508565b50505b505a6108f36146ae565b5050505050158015610912573d6000803e3d600061090f614508565b50505b50505050604051601f3d908101601f19168201604052610935919081019061490f565b6001600160a01b031614156109525760008061094f614508565b50505b60008061095d614573565b906101000a90046001600160a01b03166001600160a01b031663f1be16796040518163ffffffff1660e01b815260040160206040518083038186806109a0614662565b1580156109b5576000806109b2614508565b50505b505a6109bf6146ae565b50505050501580156109de573d6000803e3d60006109db614508565b50505b50505050604051601f3d908101601f19168201604052610a01919081019061490f565b6005600181610a0e614573565b816001600160a01b0302191690836001600160a01b0316021790610a30614614565b5050508160078190610a40614614565b50505080600660006101000a81610a55614573565b816001600160801b030219169083600f0b6001600160801b0316021790610a7a614614565b505050600060088190610a8b614614565b505050600360098190610a9c614614565b5050506001600560146101000a81610ab2614573565b8160ff02191690831515021790610ac7614614565b5050505050505050565b5a610ada6145ce565b600080610ae5614573565b906101000a90046001600160a01b03166001600160a01b0316636071015d826040518263ffffffff1660e01b8152600401610b209190614b64565b6020604051808303818680610b33614662565b158015610b4857600080610b45614508565b50505b505a610b526146ae565b5050505050158015610b71573d6000803e3d6000610b6e614508565b50505b50505050604051601f3d908101601f19168201604052610b9491908101906149e1565b1515600114610bc75760405162461bcd60e51b8152600401610bb590614d85565b60405180910390610bc4614508565b50505b600085118015610bd75750600084115b80610bed5750600083118015610bed5750600082115b610bff57600080610bfc614508565b50505b6000806001610c0c614573565b906101000a90046001600160a01b0316905060006002600090610c2d614573565b906101000a90046001600160a01b0316905060006003600090610c4e614573565b906101000a90046001600160a01b0316905060006004600090610c6f614573565b906101000a90046001600160a01b03169050600080600090610c8f614573565b906101000a90046001600160a01b03169050610cab85846120f5565b8a1115610cdc5760405162461bcd60e51b8152600401610cca90614c06565b60405180910390610cd9614508565b50505b610ce684836120f5565b881115610d175760405162461bcd60e51b8152600401610d0590614d5e565b60405180910390610d14614508565b50505b806001600160a01b0316638f259e456040518163ffffffff1660e01b81526004016020604051808303818680610d4b614662565b158015610d6057600080610d5d614508565b50505b505a610d6a6146ae565b5050505050158015610d89573d6000803e3d6000610d86614508565b50505b50505050604051601f3d908101601f19168201604052610dac9190810190614a85565b600c80610db7614573565b905010610de85760405162461bcd60e51b8152600401610dd690614c2d565b60405180910390610de5614508565b50505b60008a118015610df85750600089115b80610e0e5750600088118015610e0e5750600087115b610e3c5760405162461bcd60e51b8152600401610e2a90614c86565b60405180910390610e39614508565b50505b600060405180608001604052808c8152602001876001600160a01b031681526020018b8152602001866001600160a01b031681525090506000604051608081016040528a81526020810160006002610e92614573565b906101000a90046001600160a01b03166001600160a01b031681526020018a81526020016001600090610ec3614573565b6001600160a01b036101009290920a900416905290506000806003610ee6614573565b6001600160a01b036101009290920a90041663271e442684518560200151866040015187606001516040518563ffffffff1660e01b8152600401610f2d9493929190614ddb565b60206040518083038160008780610f42614662565b158015610f5757600080610f54614508565b50505b505a610f61614799565b505050505050158015610f81573d6000803e3d6000610f7e614508565b50505b50505050604051601f3d908101601f19168201604052610fa49190810190614a85565b90506000806004610fb3614573565b6001600160a01b036101009290920a90041663271e442684518560200151866040015187606001516040518563ffffffff1660e01b8152600401610ffa9493929190614ddb565b6020604051808303816000878061100f614662565b15801561102457600080611021614508565b50505b505a61102e614799565b50505050505015801561104e573d6000803e3d600061104b614508565b50505b50505050604051601f3d908101601f191682016040526110719190810190614a85565b9050600060405160c08101604052838152602081018651815260208101849052604001855181526020015a6110a461485f565b81526020015a6110b26145ce565b6001600160a01b03169052905080600c806001816110ce614573565b0180826110d9614614565b50506000928352600019019160209150206006909102018151816110fb614614565b505060208201518160010161110e614614565b5050604082015181600201611121614614565b5050606082015181600301611134614614565b5050608082015181600401611147614614565b505060a08201516005820160018161115d614573565b816001600160a01b0302191690836001600160a01b031602179061117f614614565b50505050507fde7b0fdd5aebd45f74365d8f0fdf3281b1e85adc7b2da2bd54fd18d6f8af53f9816000015182602001518360400151846060015185608001518660a001516040516111d596959493929190614e10565b60405180910390a16111e8868b8b612c03565b50505050505050505050506001600090611200614573565b6001600160a01b036101009290920a9004166370a0823160006003611223614573565b906101000a90046001600160a01b03166040518263ffffffff1660e01b815260040161124f9190614b64565b6020604051808303818680611262614662565b15801561127757600080611274614508565b50505b505a6112816146ae565b50505050501580156112a0573d6000803e3d600061129d614508565b50505b50505050604051601f3d908101601f191682016040526112c39190810190614a85565b61143660646114306000806112d6614573565b906101000a90046001600160a01b03166001600160a01b0316630c7d5cd86040518163ffffffff1660e01b81526004016020604051808303818680611319614662565b15801561132e5760008061132b614508565b50505b505a6113386146ae565b5050505050158015611357573d6000803e3d6000611354614508565b50505b50505050604051601f3d908101601f1916820160405261137a9190810190614a85565b60006003611386614573565b906101000a90046001600160a01b03166001600160a01b03166318160ddd6040518163ffffffff1660e01b815260040160206040518083038186806113c9614662565b1580156113de576000806113db614508565b50505b505a6113e86146ae565b5050505050158015611407573d6000803e3d6000611404614508565b50505b50505050604051601f3d908101601f1916820160405261142a9190810190614a85565b90612fb1565b9061301a565b111561144a57600080611447614508565b50505b60006002611456614573565b6001600160a01b036101009290920a9004166370a0823160006004611479614573565b906101000a90046001600160a01b03166040518263ffffffff1660e01b81526004016114a59190614b64565b60206040518083038186806114b8614662565b1580156114cd576000806114ca614508565b50505b505a6114d76146ae565b50505050501580156114f6573d6000803e3d60006114f3614508565b50505b50505050604051601f3d908101601f191682016040526115199190810190614a85565b6115dc606461143060008061152c614573565b906101000a90046001600160a01b03166001600160a01b0316630c7d5cd86040518163ffffffff1660e01b8152600401602060405180830381868061156f614662565b15801561158457600080611581614508565b50505b505a61158e6146ae565b50505050501580156115ad573d6000803e3d60006115aa614508565b50505b50505050604051601f3d908101601f191682016040526115d09190810190614a85565b60006004611386614573565b1115610355576000806115ed614508565b505050505050565b6000600d60005a6116046145ce565b6001600160a01b03166001600160a01b0316815260200190815260200160002061162c614573565b90506000600e60005a61163d6145ce565b6001600160a01b03166001600160a01b03168152602001908152602001600020611665614573565b90508115611927576000611799600a61167c614573565b6114306000600161168b614573565b906101000a90046001600160a01b03166001600160a01b03166370a082315a63996d79a5598160e01b8152602081600483336000905af158600e01573d6000803e3d6000fd5b3d6001141558600a015760016000f35b8051925060005b60408110156116ff576000828201526020016116e8565b5050506040518263ffffffff1660e01b815260040161171e9190614b64565b6020604051808303818680611731614662565b15801561174657600080611743614508565b50505b505a6117506146ae565b505050505015801561176f573d6000803e3d600061176c614508565b50505b50505050604051601f3d908101601f191682016040526117929190810190614a85565b8690612fb1565b9050600060016117a7614573565b906101000a90046001600160a01b03166001600160a01b031663a9059cbb5a6117ce6145ce565b836040518363ffffffff1660e01b81526004016117ec929190614ba1565b60206040518083038160008780611801614662565b15801561181657600080611813614508565b50505b505a611820614799565b505050505050158015611840573d6000803e3d600061183d614508565b50505b50505050604051601f3d908101601f1916820160405261186391908101906149e1565b50600080516020614e608339815191525a61187c6145ce565b60006001611888614573565b906101000a90046001600160a01b0316835a6118a261485f565b6040516118b29493929190614b78565b60405180910390a182600a600082826118c9614573565b0392505081906118d7614614565b50505082600d60005a6118e86145ce565b6001600160a01b03166001600160a01b0316815260200190815260200160002060008282611914614573565b039250508190611922614614565b505050505b8015611be2576000611a59600b61193c614573565b6114306000600261194b614573565b906101000a90046001600160a01b03166001600160a01b03166370a082315a63996d79a5598160e01b8152602081600483336000905af158600e01573d6000803e3d6000fd5b3d6001141558600a015760016000f35b8051925060005b60408110156119bf576000828201526020016119a8565b5050506040518263ffffffff1660e01b81526004016119de9190614b64565b60206040518083038186806119f1614662565b158015611a0657600080611a03614508565b50505b505a611a106146ae565b5050505050158015611a2f573d6000803e3d6000611a2c614508565b50505b50505050604051601f3d908101601f19168201604052611a529190810190614a85565b8590612fb1565b905060006002611a67614573565b906101000a90046001600160a01b03166001600160a01b031663a9059cbb5a611a8e6145ce565b836040518363ffffffff1660e01b8152600401611aac929190614ba1565b60206040518083038160008780611ac1614662565b158015611ad657600080611ad3614508565b50505b505a611ae0614799565b505050505050158015611b00573d6000803e3d6000611afd614508565b50505b50505050604051601f3d908101601f19168201604052611b2391908101906149e1565b50600080516020614e608339815191525a611b3c6145ce565b60006002611b48614573565b906101000a90046001600160a01b0316835a611b6261485f565b604051611b729493929190614b78565b60405180910390a181600b60008282611b89614573565b039250508190611b97614614565b50505081600e60005a611ba86145ce565b6001600160a01b03166001600160a01b0316815260200190815260200160002060008282611bd4614573565b0392505081906115ed614614565b5050565b600c8181611bf2614573565b8110611c0657600080611c03614508565b50505b906000526020600020600690910201905080611c20614573565b9080600101611c2d614573565b9080600201611c3a614573565b9080600301611c47614573565b9080600401611c54614573565b90600060058201611c63614573565b906101000a90046001600160a01b0316905086565b600080611c83614573565b906101000a90046001600160a01b031681565b60006005611c83614573565b60006002611c83614573565b60006001611c83614573565b600e6020528060005260406000209050611cd2614573565b81565b600d6020528060005260406000209050611cd2614573565b60006003611c83614573565b6000611d0482613086565b905060006001611d12614573565b906101000a90046001600160a01b03166001600160a01b031681602001516001600160a01b03161415611f00576000600c80611d4c614573565b9050905060005b81811015611ef95783600c8281611d68614573565b8110611d7057fe5b906000526020600020600690910201611d87614573565b1415611ef157600c8181611d99614573565b8110611da157fe5b9060005260206000209060060201600501600090611dbd614573565b906101000a90046001600160a01b03166001600160a01b03165a611ddf6145ce565b6001600160a01b031614611e175760405162461bcd60e51b8152600401611e0590614d17565b60405180910390611e14614508565b50505b60006003611e23614573565b906101000a90046001600160a01b03166001600160a01b031662efa89585600c8481611e4d614573565b8110611e5557fe5b9060005260206000209060060201600101611e6e614573565b6040518363ffffffff1660e01b8152600401611e8b929190614e02565b60006040518083038160008780611ea0614662565b158015611eb557600080611eb2614508565b50505b505a611ebf614799565b505050505050158015611edf573d6000803e3d6000611edc614508565b50505b50505050611eec8161318e565b611ef9565b600101611d53565b5050611be2565b60006002611f0c614573565b906101000a90046001600160a01b03166001600160a01b031681602001516001600160a01b03161415611be2576000600c80611f46614573565b9050905060005b818110156103555783600c8281611f62614573565b8110611f6a57fe5b9060005260206000209060060201600201611f83614573565b14156120ed57600c8181611f95614573565b8110611f9d57fe5b9060005260206000209060060201600501600090611fb9614573565b906101000a90046001600160a01b03166001600160a01b03165a611fdb6145ce565b6001600160a01b0316146120135760405162461bcd60e51b815260040161200190614d17565b60405180910390612010614508565b50505b6000600361201f614573565b906101000a90046001600160a01b03166001600160a01b031662efa89585600c8481612049614573565b811061205157fe5b906000526020600020906006020160030161206a614573565b6040518363ffffffff1660e01b8152600401612087929190614e02565b6000604051808303816000878061209c614662565b1580156120b1576000806120ae614508565b50505b505a6120bb614799565b5050505050501580156120db573d6000803e3d60006120d8614508565b50505b505050506120e88161318e565b610355565b600101611f4d565b600080806001612103614573565b906101000a90046001600160a01b0316905060006002600090612124614573565b906101000a90046001600160a01b03169050816001600160a01b0316856001600160a01b031614806121675750806001600160a01b0316856001600160a01b0316145b61217957600080612176614508565b50505b600061219b816006612189614573565b906101000a9004600f0b6103e8613367565b90506000866001600160a01b03166370a08231876040518263ffffffff1660e01b81526004016121cb9190614b64565b60206040518083038186806121de614662565b1580156121f3576000806121f0614508565b50505b505a6121fd6146ae565b505050505015801561221c573d6000803e3d6000612219614508565b50505b50505050604051601f3d908101601f1916820160405261223f9190810190614a85565b9050600081116122735760405162461bcd60e51b815260040161226190614cba565b60405180910390612270614508565b50505b600061227d6133c9565b905080600f0b600014156122ab5761229f61271061143084600761142a614573565b955050505050506124bd565b846001600160a01b0316886001600160a01b0316141561242157600061238a836001600160a01b0387166370a082318460046122e5614573565b906101000a90046001600160a01b03166040518263ffffffff1660e01b81526004016123119190614b64565b6020604051808303818680612324614662565b15801561233957600080612336614508565b50505b505a6123436146ae565b5050505050158015612362573d6000803e3d600061235f614508565b50505b50505050604051601f3d908101601f191682016040526123859190810190614a85565b613610565b9050600160401b61239b8284613656565b600f0b13156123c5576123b861271061143085600761142a614573565b96505050505050506124bd565b60006123db61271061143086600761142a614573565b905060006124026123fd876123f86123f38789613656565b613692565b613656565b6136f9565b905060006124108284613755565b99506124bd98505050505050505050565b836001600160a01b0316886001600160a01b031614156124b757600061245b836001600160a01b0388166370a082318460036122e5614573565b9050600160401b61246c8284613367565b600f0b1315612489576123b861271061143085600761142a614573565b600061249f61271061143086600761142a614573565b905060006124026123fd876123f86123f38789613367565b50505050505b92915050565b6000600c806124d0614573565b91505090565b60006004611c83614573565b600060096124ee614573565b905090565b6007611cd2614573565b60006014600561250b614573565b906101000a900460ff1661252757600080612524614508565b50505b600060046102e6614573565b6000808061253f614573565b906101000a90046001600160a01b03166001600160a01b031663c9dec3616040518163ffffffff1660e01b81526004016020604051808303818680612582614662565b15801561259757600080612594614508565b50505b505a6125a16146ae565b50505050501580156125c0573d6000803e3d60006125bd614508565b50505b50505050604051601f3d908101601f191682016040526125e39190810190614a85565b90506000600c806125f2614573565b9050905060006008612602614573565b905060006009612610614573565b905082818301106126325782811061262d57506000905081612632565b508082035b815b818301811015612bbb57845a61264861485f565b03600c8281612655614573565b811061265d57fe5b9060005260206000209060060201600401612676614573565b1015612bb3576000600c828161268a614573565b811061269257fe5b906000526020600020906006020160405160c081016040529081816126b5614573565b8152602001600182016126c6614573565b8152602001600282016126d7614573565b8152602001600382016126e8614573565b8152602001600482016126f9614573565b815260200160006005830161270c614573565b6001600160a01b036101009290920a9004169052509050600061272f8251613086565b905060006127408360400151613086565b905060008251846020015103905060008251856060015103905084511561296e5781156128cf576127778260018760a001516137d8565b60006003612783614573565b906101000a90046001600160a01b03166001600160a01b031663831d2678836040518263ffffffff1660e01b81526004016127be9190614dd2565b600060405180830381600087806127d3614662565b1580156127e8576000806127e5614508565b50505b505a6127f2614799565b505050505050158015612812573d6000803e3d600061280f614508565b50505b50505050846020015182146128ca576000600361282d614573565b6001600160a01b036101009290920a90041662efa89586516128548589602001519061388e565b6040518363ffffffff1660e01b8152600401612871929190614e02565b60006040518083038160008780612886614662565b15801561289b57600080612898614508565b50505b505a6128a5614799565b5050505050501580156128c5573d6000803e3d60006128c2614508565b50505b505050505b61296e565b600060036128db614573565b6001600160a01b036101009290920a90041662efa895865187602001516040518363ffffffff1660e01b8152600401612915929190614e02565b6000604051808303816000878061292a614662565b15801561293f5760008061293c614508565b50505b505a612949614799565b505050505050158015612969573d6000803e3d6000612966614508565b50505b505050505b846040015115612b99578015612af05761298e8160008760a001516137d8565b6000600461299a614573565b906101000a90046001600160a01b03166001600160a01b031663831d2678826040518263ffffffff1660e01b81526004016129d59190614dd2565b600060405180830381600087806129ea614662565b1580156129ff576000806129fc614508565b50505b505a612a09614799565b505050505050158015612a29573d6000803e3d6000612a26614508565b50505b5050505084606001518114612aeb5760006004612a44614573565b906101000a90046001600160a01b03166001600160a01b031662efa8958660400151612a758489606001519061388e565b6040518363ffffffff1660e01b8152600401612a92929190614e02565b60006040518083038160008780612aa7614662565b158015612abc57600080612ab9614508565b50505b505a612ac6614799565b505050505050158015612ae6573d6000803e3d6000612ae3614508565b50505b505050505b612b99565b60006004612afc614573565b906101000a90046001600160a01b03166001600160a01b031662efa895866040015187606001516040518363ffffffff1660e01b8152600401612b40929190614e02565b60006040518083038160008780612b55614662565b158015612b6a57600080612b67614508565b50505b505a612b74614799565b505050505050158015612b94573d6000803e3d6000612b91614508565b50505b505050505b612ba28661318e565b505050600019938401939092019150505b600101612634565b50826009612bc7614573565b830110612be3576000806008612bdb614614565b505050610355565b6009612bed614573565b8201806008612bfa614614565b50505050505050565b6000806003612c10614573565b906101000a90046001600160a01b0316905060006004600090612c31614573565b906101000a90046001600160a01b031690506000836001600160a01b03166370a08231846040518263ffffffff1660e01b8152600401612c719190614b64565b6020604051808303818680612c84614662565b158015612c9957600080612c96614508565b50505b505a612ca36146ae565b5050505050158015612cc2573d6000803e3d6000612cbf614508565b50505b50505050604051601f3d908101601f19168201604052612ce59190810190614a85565b90506000856001600160a01b03166370a08231846040518263ffffffff1660e01b8152600401612d159190614b64565b6020604051808303818680612d28614662565b158015612d3d57600080612d3a614508565b50505b505a612d476146ae565b5050505050158015612d66573d6000803e3d6000612d63614508565b50505b50505050604051601f3d908101601f19168201604052612d899190810190614a85565b90506000876001600160a01b0316631f3cdd8a5a63996d79a5598160e01b8152602081600483336000905af158600e01573d6000803e3d6000fd5b3d6001141558600a015760016000f35b8051925060005b6040811015612df257600082820152602001612ddb565b5050506040518263ffffffff1660e01b8152600401612e119190614b64565b6020604051808303818680612e24614662565b158015612e3957600080612e36614508565b50505b505a612e436146ae565b5050505050158015612e62573d6000803e3d6000612e5f614508565b50505b50505050604051601f3d908101601f19168201604052612e859190810190614b34565b60ff1690508215612f1957846001600160a01b031663b3f865f78588846040518463ffffffff1660e01b8152600401612ec093929190614bba565b60006040518083038160008780612ed5614662565b158015612eea57600080612ee7614508565b50505b505a612ef4614799565b505050505050158015612f14573d6000803e3d6000612f11614508565b50505b505050505b8115610ac757836001600160a01b031663b3f865f78689846040518463ffffffff1660e01b8152600401612f4f93929190614bba565b60006040518083038160008780612f64614662565b158015612f7957600080612f76614508565b50505b505a612f83614799565b505050505050158015612fa3573d6000803e3d6000612fa0614508565b50505b505050505050505050505050565b600082612fc0575060006124bd565b82820282848281612fcd57fe5b04146130135760405162461bcd60e51b8152600401808060200182810382526021815260200180614e806021913960400191505060405180910390613010614508565b50505b9392505050565b60008082116130755760405162461bcd60e51b815260206004820152601a602482015279536166654d6174683a206469766973696f6e206279207a65726f60301b604482015260640160405180910390613072614508565b50505b81838161307e57fe5b049392505050565b61308e6148a5565b600080808080600561309e614573565b906101000a90046001600160a01b03166001600160a01b0316634579268a876040518263ffffffff1660e01b81526004016130d99190614dd2565b60806040518083038186806130ec614662565b158015613101576000806130fe614508565b50505b505a61310b6146ae565b505050505015801561312a573d6000803e3d6000613127614508565b50505b50505050604051601f3d908101601f1916820160405261314d9190810190614aa8565b935093509350935060006040516080810160409081529581526001600160a01b0394851660208201529485019290925290911660608301525090505b919050565b600c6001600c8061319d614573565b905003816131a9614573565b81106131b157fe5b9060005260206000209060060201600c82816131cb614573565b81106131d357fe5b906000526020600020600690910201816131eb614573565b816131f4614614565b505060018201613202614573565b8160010161320e614614565b50506002820161321c614573565b81600201613228614614565b505060038201613236614573565b81600301613242614614565b505060048201613250614573565b8160040161325c614614565b50506005820160009061326d614573565b906101000a90046001600160a01b03168160050160006101000a81613290614573565b816001600160a01b0302191690836001600160a01b03160217906132b2614614565b505050905050600c806132c3614573565b806132ca57fe5b600190038181906000526020600020600690910201600080826132eb614614565b5050600182016000906132fc614614565b50506002820160009061330d614614565b50506003820160009061331e614614565b50506004820160009061332f614614565b505060058201600181613340614573565b906001600160a01b0302191690613355614614565b5050505090613362614614565b505050565b600081600f0b6000141561338357600080613380614508565b50505b600082600f0b604085600f0b901b8161339857fe5b05905060016001607f1b031981128015906133ba575060016001607f1b038113155b61301357600080613010614508565b6000808060056133d7614573565b6001600160a01b036101009290920a9004169050600081630374fc6f8260016133fe614573565b906101000a90046001600160a01b0316600260009061341b614573565b906101000a90046001600160a01b03166040518363ffffffff1660e01b8152600401613448929190614bec565b602060405180830381868061345b614662565b1580156134705760008061346d614508565b50505b505a61347a6146ae565b5050505050158015613499573d6000803e3d6000613496614508565b50505b50505050604051601f3d908101601f191682016040526134bc9190810190614a85565b905060006001600160a01b038316630374fc6f8260026134da614573565b906101000a90046001600160a01b031660016000906134f7614573565b906101000a90046001600160a01b03166040518363ffffffff1660e01b8152600401613524929190614bec565b6020604051808303818680613537614662565b15801561354c57600080613549614508565b50505b505a6135566146ae565b5050505050158015613575573d6000803e3d6000613572614508565b50505b50505050604051601f3d908101601f191682016040526135989190810190614a85565b90508115806135a5575080155b156135b657600093505050506102f9565b60006135c183613086565b905060006135ce83613086565b905060006136056135fe6135e8846040015185519061301a565b6135f8865187604001519061301a565b906138f3565b6002613610565b965050505050505090565b60008161362557600080613622614508565b50505b60006136318484613950565b905060016001607f1b036001600160801b038216111561301357600080613010614508565b6000600f83810b9083900b0260401d60016001607f1b031981128015906133ba575060016001607f1b0381131561301357600080613010614508565b600081600f0b600014156136ae576000806136ab614508565b50505b600082600f0b600160801b816136c057fe5b05905060016001607f1b031981128015906136e2575060016001607f1b038113155b6124bd576000806136f1614508565b505092915050565b6000600160461b82600f0b1261371757600080613714614508565b50505b6001600160461b031982600f0b121561373257506000613189565b6124bd608083600f0b700171547652b82fe1777d0ffda0d23a7d1202901d613ab1565b600081613764575060006124bd565b600083600f0b121561377e5760008061377b614508565b50505b600f83900b6001600160801b038316810260401c90608084901c026001600160c01b038111156137b6576000806137b3614508565b50505b60401b81198111156137d0576000806137cd614508565b50505b019392505050565b811561383a576001600160a01b0381166000908152600d60205283906040902060008282613804614573565b019250508190613812614614565b50505082600a60008282613824614573565b019250508190613832614614565b505050613362565b6001600160a01b0381166000908152600e60205283906040902060008282613860614573565b01925050819061386e614614565b50505082600b60008282613880614573565b0192505081906115ed614614565b6000828211156138ed5760405162461bcd60e51b815260206004820152601e60248201527f536166654d6174683a207375627472616374696f6e206f766572666c6f7700006044820152606401604051809103906138ea614508565b50505b50900390565b6000828201838110156130135760405162461bcd60e51b815260206004820152601b60248201527a536166654d6174683a206164646974696f6e206f766572666c6f7760281b604482015260640160405180910390613010614508565b60008161396557600080613962614508565b50505b60006001600160c01b03841161398a5782604085901b8161398257fe5b049050613a97565b60c084811c600160201b81106139a2576020918201911c5b6201000081106139b4576010918201911c5b61010081106139c5576008918201911c5b601081106139d5576004918201911c5b600481106139e5576002918201911c5b600281106139f4576001820191505b60bf820360018603901c6001018260ff0387901b81613a0f57fe5b0492506001600160801b03831115613a2f57600080613a2c614508565b50505b608085901c83026001600160801b038616840260c088901c604089901b82811015613a5b576001820391505b608084901b92900382811015613a72576001820391505b829003608084901c8214613a8257fe5b888181613a8b57fe5b04870196505050505050505b6001600160801b0381111561301357600080613010614508565b6000600160461b82600f0b12613acf57600080613acc614508565b50505b6001600160461b031982600f0b1215613aea57506000613189565b6001607f1b60006001603f1b8416600f0b1315613b185770016a09e667f3bcc908b2fb1366ea957d3e0260801c5b6000836001603e1b16600f0b1315613b41577001306fe0a31b7152de8d5a46305c85edec0260801c5b6000836001603d1b16600f0b1315613b6a577001172b83c7d517adcdf7c8c50eb14a791f0260801c5b6000836001603c1b16600f0b1315613b935770010b5586cf9890f6298b92b71842a983630260801c5b6000836001603b1b16600f0b1315613bbc577001059b0d31585743ae7c548eb68ca417fd0260801c5b6000836001603a1b16600f0b1315613be557700102c9a3e778060ee6f7caca4f7a29bde80260801c5b600083600160391b16600f0b1315613c0e5770010163da9fb33356d84a66ae336dcdfa3f0260801c5b600083600160381b16600f0b1315613c3757700100b1afa5abcbed6129ab13ec11dc95430260801c5b600083600160371b16600f0b1315613c605770010058c86da1c09ea1ff19d294cf2f679b0260801c5b600083600160361b16600f0b1315613c89577001002c605e2e8cec506d21bfc89a23a00f0260801c5b600083600160351b16600f0b1315613cb257700100162f3904051fa128bca9c55c31e5df0260801c5b600083600160341b16600f0b1315613cdb577001000b175effdc76ba38e31671ca9397250260801c5b600083600160331b16600f0b1315613d0457700100058ba01fb9f96d6cacd4b180917c3d0260801c5b600083600160321b16600f0b1315613d2d5770010002c5cc37da9491d0985c348c68e7b30260801c5b600083600160311b16600f0b1315613d56577001000162e525ee054754457d59952920260260801c5b600083600160301b16600f0b1315613d7f5770010000b17255775c040618bf4a4ade83fc0260801c5b6000836001602f1b16600f0b1315613da8577001000058b91b5bc9ae2eed81e9b7d4cfab0260801c5b6000836001602e1b16600f0b1315613dd157700100002c5c89d5ec6ca4d7c8acc017b7c90260801c5b6000836001602d1b16600f0b1315613dfa5770010000162e43f4f831060e02d839a9d16d0260801c5b6000836001602c1b16600f0b1315613e2357700100000b1721bcfc99d9f890ea069117630260801c5b6000836001602b1b16600f0b1315613e4c5770010000058b90cf1e6d97f9ca14dbcc16280260801c5b6000836001602a1b16600f0b1315613e75577001000002c5c863b73f016468f6bac5ca2b0260801c5b600083600160291b16600f0b1315613e9e57700100000162e430e5a18f6119e3c02282a50260801c5b600083600160281b16600f0b1315613ec7577001000000b1721835514b86e6d96efd1bfe0260801c5b600083600160271b16600f0b1315613ef057700100000058b90c0b48c6be5df846c5b2ef0260801c5b600083600160261b16600f0b1315613f195770010000002c5c8601cc6b9e94213c72737a0260801c5b600083600160251b16600f0b1315613f42577001000000162e42fff037df38aa2b219f060260801c5b600083600160241b16600f0b1315613f6b5770010000000b17217fba9c739aa5819f44f90260801c5b600083600160231b16600f0b1315613f94577001000000058b90bfcdee5acd3c1cedc8230260801c5b600083600160221b16600f0b1315613fbd57700100000002c5c85fe31f35a6a30da1be500260801c5b600083600160211b16600f0b1315613fe65770010000000162e42ff0999ce3541b9fffcf0260801c5b600083600160201b16600f0b131561400f57700100000000b17217f80f4ef5aadda455540260801c5b600083638000000016600f0b13156140385770010000000058b90bfbf8479bd5a81b51ad0260801c5b600083634000000016600f0b1315614061577001000000002c5c85fdf84bd62ae30a74cc0260801c5b600083632000000016600f0b131561408a57700100000000162e42fefb2fed257559bdaa0260801c5b600083631000000016600f0b13156140b3577001000000000b17217f7d5a7716bba4a9ae0260801c5b600083630800000016600f0b13156140dc57700100000000058b90bfbe9ddbac5e109cce0260801c5b600083630400000016600f0b13156141055770010000000002c5c85fdf4b15de6f17eb0d0260801c5b600083630200000016600f0b131561412e577001000000000162e42fefa494f1478fde050260801c5b600083630100000016600f0b13156141575770010000000000b17217f7d20cf927c8e94c0260801c5b6000836280000016600f0b131561417f577001000000000058b90bfbe8f71cb4e4b33d0260801c5b6000836240000016600f0b13156141a757700100000000002c5c85fdf477b662b269450260801c5b6000836220000016600f0b13156141cf5770010000000000162e42fefa3ae53369388c0260801c5b6000836210000016600f0b13156141f757700100000000000b17217f7d1d351a389d400260801c5b6000836208000016600f0b131561421f5770010000000000058b90bfbe8e8b2d3d4ede0260801c5b6000836204000016600f0b1315614247577001000000000002c5c85fdf4741bea6e77e0260801c5b6000836202000016600f0b131561426f57700100000000000162e42fefa39fe95583c20260801c5b6000836201000016600f0b13156142965769b17217f7d1cfb72b45e1600160801b010260801c5b60008361800016600f0b13156142bc576958b90bfbe8e7cc35c3f0600160801b010260801c5b60008361400016600f0b13156142e257692c5c85fdf473e242ea38600160801b010260801c5b60008361200016600f0b13156143085769162e42fefa39f02b772c600160801b010260801c5b60008361100016600f0b131561432e57690b17217f7d1cf7d83c1a600160801b010260801c5b60008361080016600f0b13156143545769058b90bfbe8e7bdcbe2e600160801b010260801c5b60008361040016600f0b131561437a576902c5c85fdf473dea871f600160801b010260801c5b60008361020016600f0b13156143a057690162e42fefa39ef44d91600160801b010260801c5b60008361010016600f0b13156143c55768b17217f7d1cf79e949600160801b010260801c5b600083608016600f0b13156143e9576858b90bfbe8e7bce544600160801b010260801c5b600083604016600f0b131561440d57682c5c85fdf473de6eca600160801b010260801c5b600083602016600f0b13156144315768162e42fefa39ef366f600160801b010260801c5b600083601016600f0b131561445557680b17217f7d1cf79afa600160801b010260801c5b600083600816600f0b13156144795768058b90bfbe8e7bcd6d600160801b010260801c5b600083600416600f0b131561449d576802c5c85fdf473de6b2600160801b010260801c5b600083600216600f0b13156144c157680162e42fefa39ef358600160801b010260801c5b600083600116600f0b13156144e45767b17217f7d1cf79ab600160801b010260801c5b600f83810b60401d603f03900b1c60016001607f1b038111156124bd576000806136f15b632a2a7adb598160e01b8152600481016020815285602082015260005b86811015614540578086015182820160400152602001614525565b506020828760640184336000905af158600e01573d6000803e3d6000fd5b3d6001141558600a015760016000f35b505050565b6303daa959598160e01b8152836004820152602081602483336000905af158600e01573d6000803e3d6000fd5b3d6001141558600a015760016000f35b8051935060005b6040811015613362576000828201526020016145b7565b6373509064598160e01b8152602081600483336000905af158600e01573d6000803e3d6000fd5b3d6001141558600a015760016000f35b805160008252935060206145b7565b6322bd64c0598160e01b8152836004820152846024820152600081604483336000905af158600e01573d6000803e3d6000fd5b3d6001141558600a015760016000f35b6000815260206145b7565b638435035b598160e01b8152836004820152602081602483336000905af158600e01573d6000803e3d6000fd5b3d6001141558600a015760016000f35b805160008252935060206145b7565b638540661f598160e01b81526146df565b80808311156124bd575090919050565b80808310156124bd575090919050565b836004820152846024820152606060448201528660648201526084810160005b888110156147175780880151828201526020016146ff565b506060828960a40184336000905af158600e01573d6000803e3d6000fd5b3d6001141558600a015760016000f35b815160408301513d6000853e8b8b82606087013350600060045af1505961476c8d3d6146cf565b8c0161477881876146bf565b5b8281101561478d5760008152602001614779565b50929c50505050505050565b6385979f76598160e01b8152836004820152846024820152606060448201528760648201526084810160005b898110156147dd5780890151828201526020016147c5565b506060828a60a40184336000905af158600e01573d6000803e3d6000fd5b3d6001141558600a015760016000f35b815160408301513d6000853e8c8c82606087013350600060045af150596148328e3d6146cf565b8d0161483e81876146bf565b5b82811015614853576000815260200161483f565b50929d50505050505050565b63bdbf8c36598160e01b8152602081600483336000905af158600e01573d6000803e3d6000fd5b3d6001141558600a015760016000f35b805160008252935060206145b7565b604051608081016040908152600080835260208301819052908201819052606082015290565b8035600f81900b8114613189576000806148e3614508565b5050919050565b600060208284031215614904578081614901614508565b50505b813561301381614e41565b600060208284031215614929578081614926614508565b50505b815161301381614e41565b6000806040838503121561494f57808161494c614508565b50505b823561495a81614e41565b9150602083013561496a81614e41565b809150509250929050565b600080600080600060a08688031215614995578081614992614508565b50505b85356149a081614e41565b945060208601356149b081614e41565b935060408601356149c081614e41565b9250606086013591506149d5608087016148cb565b90509295509295909350565b6000602082840312156149fb5780816149f8614508565b50505b81518015158114613013578182613010614508565b600060208284031215614a2a578081614a27614508565b50505b613013826148cb565b600060208284031215614a4d578081614a4a614508565b50505b813561ffff81168114613013578182613010614508565b600060208284031215614a7e578081614a7b614508565b50505b5035919050565b600060208284031215614a9f578081614a9c614508565b50505b81519392505050565b60008060008060808587031215614ac6578384614ac3614508565b50505b845193506020850151614ad881614e41565b9250604085015191506060850151614aef81614e41565b939692955090935050565b60008060008060808587031215614b18578384614b15614508565b50505b5050823594602084013594506040840135936060013592509050565b600060208284031215614b4e578081614b4b614508565b50505b815160ff81168114613013578182613010614508565b6001600160a01b0391909116815260200190565b6001600160a01b0394851681529290931660208301526040820152606081019190915260800190565b6001600160a01b03929092168252602082015260400190565b6001600160a01b03938416815291909216602082015261ffff909116604082015260600190565b901515815260200190565b6001600160a01b0392831681529116602082015260400190565b6020808252600d908201526c61736b20746f6f206c6172676560981b604082015260600190565b60208082526039908201527f746f6f206d616e79206f75747374616e64696e672070616972732c20706c65616040820152781cd94818d85b1b0818985d1a14d8dc9d588a0a48199a5c9cdd603a1b606082015260800190565b6020808252601a90820152796f6e65206f72646572206d757374206265206e6f6e2d7a65726f60301b604082015260600190565b6020808252603d908201527f6e6f2062617468546f6b656e206c697175696469747920746f2063616c63756c60408201527f617465206d6178206f7264657253697a65207065726d69737361626c65000000606082015260800190565b60208082526027908201527f6f6e6c7920737472617465676973742063616e2063616e63656c207468656972604082015266206f726465727360c81b606082015260800190565b6020808252600d908201526c62696420746f6f206c6172676560981b604082015260600190565b6020808252602d908201527f796f7520617265206e6f7420616e20617070726f76656420737472617465676960408201526c39ba1016903130ba342830b4b960991b606082015260800190565b90815260200190565b9384526001600160a01b039283166020850152604084019190915216606082015260800190565b918252602082015260400190565b95865260208601949094526040850192909252606084015260808301526001600160a01b031660a082015260c00190565b6001600160a01b0381168114614e5c57600080613362614508565b5056fe8afb4737140665599f05cec36207b46aee019c8b4acf9276d0a5cc6bb85ace62536166654d6174683a206d756c7469706c69636174696f6e206f766572666c6f77",
  "linkReferences": {},
  "deployedLinkReferences": {}
}